{"abi":[{"type":"constructor","inputs":[{"name":"initialOwner","type":"address","internalType":"address"},{"name":"_credentialNft","type":"address","internalType":"address"},{"name":"_workerIdentity","type":"address","internalType":"address"},{"name":"_registry","type":"address","internalType":"address"},{"name":"_treasury","type":"address","internalType":"address"},{"name":"_disputeStake","type":"uint256","internalType":"uint256"},{"name":"_votingWindow","type":"uint256","internalType":"uint256"},{"name":"_quorum","type":"uint32","internalType":"uint32"}],"stateMutability":"nonpayable"},{"type":"function","name":"CREDENTIAL_NFT","inputs":[],"outputs":[{"name":"","type":"address","internalType":"contract SoulboundCredential"}],"stateMutability":"view"},{"type":"function","name":"REGISTRY","inputs":[],"outputs":[{"name":"","type":"address","internalType":"contract CredentialRegistry"}],"stateMutability":"view"},{"type":"function","name":"WORKER_IDENTITY","inputs":[],"outputs":[{"name":"","type":"address","internalType":"contract WorkerIdentity"}],"stateMutability":"view"},{"type":"function","name":"addCouncilMember","inputs":[{"name":"member","type":"address","internalType":"address"}],"outputs":[],"stateMutability":"nonpayable"},{"type":"function","name":"dismiss","inputs":[{"name":"disputeId","type":"uint256","internalType":"uint256"},{"name":"resolution","type":"string","internalType":"string"}],"outputs":[],"stateMutability":"nonpayable"},{"type":"function","name":"disputeStake","inputs":[],"outputs":[{"name":"","type":"uint256","internalType":"uint256"}],"stateMutability":"view"},{"type":"function","name":"getDispute","inputs":[{"name":"disputeId","type":"uint256","internalType":"uint256"}],"outputs":[{"name":"","type":"tuple","internalType":"struct DisputeResolver.Dispute","components":[{"name":"disputeId","type":"uint256","internalType":"uint256"},{"name":"disputeType","type":"uint8","internalType":"enum DisputeResolver.DisputeType"},{"name":"status","type":"uint8","internalType":"enum DisputeResolver.DisputeStatus"},{"name":"raiser","type":"address","internalType":"address"},{"name":"target","type":"address","internalType":"address"},{"name":"targetTokenId","type":"uint256","internalType":"uint256"},{"name":"evidence","type":"string","internalType":"string"},{"name":"stake","type":"uint256","internalType":"uint256"},{"name":"createdAt","type":"uint48","internalType":"uint48"},{"name":"expiresAt","type":"uint48","internalType":"uint48"},{"name":"voteCount","type":"uint32","internalType":"uint32"},{"name":"requiredQuorum","type":"uint32","internalType":"uint32"},{"name":"resolution","type":"string","internalType":"string"}]}],"stateMutability":"view"},{"type":"function","name":"hasVoted","inputs":[{"name":"","type":"uint256","internalType":"uint256"},{"name":"","type":"address","internalType":"address"}],"outputs":[{"name":"","type":"bool","internalType":"bool"}],"stateMutability":"view"},{"type":"function","name":"isCouncilMember","inputs":[{"name":"","type":"address","internalType":"address"}],"outputs":[{"name":"","type":"bool","internalType":"bool"}],"stateMutability":"view"},{"type":"function","name":"owner","inputs":[],"outputs":[{"name":"","type":"address","internalType":"address"}],"stateMutability":"view"},{"type":"function","name":"quorum","inputs":[],"outputs":[{"name":"","type":"uint32","internalType":"uint32"}],"stateMutability":"view"},{"type":"function","name":"raiseCredentialDispute","inputs":[{"name":"tokenId","type":"uint256","internalType":"uint256"},{"name":"evidence","type":"string","internalType":"string"}],"outputs":[{"name":"disputeId","type":"uint256","internalType":"uint256"}],"stateMutability":"payable"},{"type":"function","name":"raiseIdentityDispute","inputs":[{"name":"wallet","type":"address","internalType":"address"},{"name":"evidence","type":"string","internalType":"string"}],"outputs":[{"name":"disputeId","type":"uint256","internalType":"uint256"}],"stateMutability":"payable"},{"type":"function","name":"removeCouncilMember","inputs":[{"name":"member","type":"address","internalType":"address"}],"outputs":[],"stateMutability":"nonpayable"},{"type":"function","name":"renounceOwnership","inputs":[],"outputs":[],"stateMutability":"nonpayable"},{"type":"function","name":"setDisputeStake","inputs":[{"name":"newStake","type":"uint256","internalType":"uint256"}],"outputs":[],"stateMutability":"nonpayable"},{"type":"function","name":"setTreasury","inputs":[{"name":"newTreasury","type":"address","internalType":"address"}],"outputs":[],"stateMutability":"nonpayable"},{"type":"function","name":"totalDisputes","inputs":[],"outputs":[{"name":"","type":"uint256","internalType":"uint256"}],"stateMutability":"view"},{"type":"function","name":"transferOwnership","inputs":[{"name":"newOwner","type":"address","internalType":"address"}],"outputs":[],"stateMutability":"nonpayable"},{"type":"function","name":"treasury","inputs":[],"outputs":[{"name":"","type":"address","internalType":"address"}],"stateMutability":"view"},{"type":"function","name":"uphold","inputs":[{"name":"disputeId","type":"uint256","internalType":"uint256"},{"name":"resolution","type":"string","internalType":"string"}],"outputs":[],"stateMutability":"nonpayable"},{"type":"function","name":"vote","inputs":[{"name":"disputeId","type":"uint256","internalType":"uint256"}],"outputs":[],"stateMutability":"nonpayable"},{"type":"function","name":"votingWindow","inputs":[],"outputs":[{"name":"","type":"uint256","internalType":"uint256"}],"stateMutability":"view"},{"type":"event","name":"CouncilMemberAdded","inputs":[{"name":"member","type":"address","indexed":true,"internalType":"address"}],"anonymous":false},{"type":"event","name":"CouncilMemberRemoved","inputs":[{"name":"member","type":"address","indexed":true,"internalType":"address"}],"anonymous":false},{"type":"event","name":"DisputeDismissed","inputs":[{"name":"disputeId","type":"uint256","indexed":true,"internalType":"uint256"},{"name":"resolvedBy","type":"address","indexed":true,"internalType":"address"},{"name":"resolution","type":"string","indexed":false,"internalType":"string"}],"anonymous":false},{"type":"event","name":"DisputeRaised","inputs":[{"name":"disputeId","type":"uint256","indexed":true,"internalType":"uint256"},{"name":"disputeType","type":"uint8","indexed":false,"internalType":"enum DisputeResolver.DisputeType"},{"name":"raiser","type":"address","indexed":true,"internalType":"address"},{"name":"target","type":"address","indexed":true,"internalType":"address"},{"name":"targetTokenId","type":"uint256","indexed":false,"internalType":"uint256"},{"name":"stake","type":"uint256","indexed":false,"internalType":"uint256"}],"anonymous":false},{"type":"event","name":"DisputeStakeUpdated","inputs":[{"name":"oldStake","type":"uint256","indexed":false,"internalType":"uint256"},{"name":"newStake","type":"uint256","indexed":false,"internalType":"uint256"}],"anonymous":false},{"type":"event","name":"DisputeUpheld","inputs":[{"name":"disputeId","type":"uint256","indexed":true,"internalType":"uint256"},{"name":"resolvedBy","type":"address","indexed":true,"internalType":"address"},{"name":"resolution","type":"string","indexed":false,"internalType":"string"}],"anonymous":false},{"type":"event","name":"DisputeVoteCast","inputs":[{"name":"disputeId","type":"uint256","indexed":true,"internalType":"uint256"},{"name":"voter","type":"address","indexed":true,"internalType":"address"},{"name":"voteCount","type":"uint32","indexed":false,"internalType":"uint32"},{"name":"requiredQuorum","type":"uint32","indexed":false,"internalType":"uint32"}],"anonymous":false},{"type":"event","name":"OwnershipTransferred","inputs":[{"name":"previousOwner","type":"address","indexed":true,"internalType":"address"},{"name":"newOwner","type":"address","indexed":true,"internalType":"address"}],"anonymous":false},{"type":"event","name":"StakeReturned","inputs":[{"name":"disputeId","type":"uint256","indexed":true,"internalType":"uint256"},{"name":"raiser","type":"address","indexed":true,"internalType":"address"},{"name":"amount","type":"uint256","indexed":false,"internalType":"uint256"}],"anonymous":false},{"type":"event","name":"StakeSlashed","inputs":[{"name":"disputeId","type":"uint256","indexed":true,"internalType":"uint256"},{"name":"treasury","type":"address","indexed":true,"internalType":"address"},{"name":"amount","type":"uint256","indexed":false,"internalType":"uint256"}],"anonymous":false},{"type":"event","name":"TreasuryUpdated","inputs":[{"name":"oldTreasury","type":"address","indexed":false,"internalType":"address"},{"name":"newTreasury","type":"address","indexed":false,"internalType":"address"}],"anonymous":false},{"type":"error","name":"Dispute__AlreadyVoted","inputs":[{"name":"voter","type":"address","internalType":"address"},{"name":"disputeId","type":"uint256","internalType":"uint256"}]},{"type":"error","name":"Dispute__Expired","inputs":[{"name":"disputeId","type":"uint256","internalType":"uint256"}]},{"type":"error","name":"Dispute__InsufficientStake","inputs":[{"name":"sent","type":"uint256","internalType":"uint256"},{"name":"required","type":"uint256","internalType":"uint256"}]},{"type":"error","name":"Dispute__NotCouncilMember","inputs":[{"name":"caller","type":"address","internalType":"address"}]},{"type":"error","name":"Dispute__NotFound","inputs":[{"name":"disputeId","type":"uint256","internalType":"uint256"}]},{"type":"error","name":"Dispute__NotOpen","inputs":[{"name":"disputeId","type":"uint256","internalType":"uint256"},{"name":"status","type":"uint8","internalType":"enum DisputeResolver.DisputeStatus"}]},{"type":"error","name":"Dispute__QuorumNotReached","inputs":[{"name":"disputeId","type":"uint256","internalType":"uint256"}]},{"type":"error","name":"Dispute__TransferFailed","inputs":[]},{"type":"error","name":"Dispute__ZeroAddress","inputs":[]},{"type":"error","name":"OwnableInvalidOwner","inputs":[{"name":"owner","type":"address","internalType":"address"}]},{"type":"error","name":"OwnableUnauthorizedAccount","inputs":[{"name":"account","type":"address","internalType":"address"}]},{"type":"error","name":"ReentrancyGuardReentrantCall","inputs":[]}],"bytecode":{"object":"0x60e060405234801562000010575f80fd5b506040516200228d3803806200228d8339810160408190526200003391620001c4565b876001600160a01b0381166200006257604051631e4fbdf760e01b81525f600482015260240160405180910390fd5b6200006d8162000159565b5060017f9b779b17422d0df92223018b32b4d1fa46e071723d6817e2486d003becc55f00556001600160a01b0387161580620000b057506001600160a01b038616155b80620000c357506001600160a01b038516155b80620000d657506001600160a01b038416155b15620000f557604051632aa9a70360e11b815260040160405180910390fd5b6001600160a01b0396871660805294861660a05292851660c052600480546001600160a01b03191692909516919091179093556006929092556007919091556008805463ffffffff191663ffffffff90921691909117905550600160055562000260565b5f80546001600160a01b038381166001600160a01b0319831681178455604051919092169283917f8be0079c531659141344cd1fd0a4f28419497f9722a3daafe3b4186f6b6457e09190a35050565b80516001600160a01b0381168114620001bf575f80fd5b919050565b5f805f805f805f80610100898b031215620001dd575f80fd5b620001e889620001a8565b9750620001f860208a01620001a8565b96506200020860408a01620001a8565b95506200021860608a01620001a8565b94506200022860808a01620001a8565b935060a0890151925060c0890151915060e089015163ffffffff811681146200024f575f80fd5b809150509295985092959890939650565b60805160a05160c051611fe6620002a75f395f8181610172015261129301525f8181610463015261122001525f8181610352015281816109b5015261117a0152611fe65ff3fe60806040526004361061013c575f3560e01c8063715018a6116100b3578063ca5b8f931161006d578063ca5b8f931461039b578063e3a96cbd146103ba578063ebd7dc52146103e6578063f0f4426014610414578063f2fde38b14610433578063f52174a414610452575f80fd5b8063715018a6146102fc57806372a6300a146103105780638da5cb5b146103255780639af6830414610341578063ba1566dc14610374578063c5e4ccc414610387575f80fd5b806339a32aed1161010457806339a32aed1461022457806343859632146102435780635720439d1461028c57806361d027b3146102ab57806361d36d08146102ca578063640e8828146102e9575f80fd5b80630121b93f1461014057806306433b1b146101615780631703a018146101b1578063289f5375146101e2578063300a0a7114610201575b5f80fd5b34801561014b575f80fd5b5061015f61015a366004611866565b610485565b005b34801561016c575f80fd5b506101947f000000000000000000000000000000000000000000000000000000000000000081565b6040516001600160a01b0390911681526020015b60405180910390f35b3480156101bc575f80fd5b506008546101cd9063ffffffff1681565b60405163ffffffff90911681526020016101a8565b3480156101ed575f80fd5b5061015f6101fc366004611891565b610662565b34801561020c575f80fd5b5061021660065481565b6040519081526020016101a8565b34801561022f575f80fd5b5061015f61023e3660046118f1565b6106df565b34801561024e575f80fd5b5061027c61025d366004611939565b600360209081525f928352604080842090915290825290205460ff1681565b60405190151581526020016101a8565b348015610297575f80fd5b5061015f6102a6366004611891565b6108cb565b3480156102b6575f80fd5b50600454610194906001600160a01b031681565b3480156102d5575f80fd5b5061015f6102e4366004611866565b61091b565b6102166102f73660046118f1565b610964565b348015610307575f80fd5b5061015f610cfe565b34801561031b575f80fd5b5061021660075481565b348015610330575f80fd5b505f546001600160a01b0316610194565b34801561034c575f80fd5b506101947f000000000000000000000000000000000000000000000000000000000000000081565b610216610382366004611967565b610d11565b348015610392575f80fd5b50610216611037565b3480156103a6575f80fd5b5061015f6103b53660046118f1565b61104c565b3480156103c5575f80fd5b506103d96103d4366004611866565b6113f9565b6040516101a89190611a23565b3480156103f1575f80fd5b5061027c610400366004611891565b60016020525f908152604090205460ff1681565b34801561041f575f80fd5b5061015f61042e366004611891565b61169e565b34801561043e575f80fd5b5061015f61044d366004611891565b611736565b34801561045d575f80fd5b506101947f000000000000000000000000000000000000000000000000000000000000000081565b61048d611770565b6104956117a1565b5f81815260026020526040812080549091036104cc57604051635744e81560e11b8152600481018390526024015b60405180910390fd5b5f6001820154610100900460ff1660038111156104eb576104eb61199f565b1461051e57818160010160019054906101000a900460ff16604051631ee57c0960e01b81526004016104c3929190611b41565b6006810154600160301b900465ffffffffffff164211156105665760018101805461ff001916610300179055604051636e9c5d8560e01b8152600481018390526024016104c3565b5f82815260036020908152604080832033845290915290205460ff16156105a957604051634a6d44a360e11b8152336004820152602481018390526044016104c3565b5f8281526003602090815260408083203380855290835292819020805460ff1916600190811790915560068501805463ffffffff600160601b80830482169094018116840263ffffffff60601b199092169190911791829055835192820481168352600160801b909104169281019290925284917f13aab722959ee3b5557fb6b8837b0dbd6f233ffdf63db180c8302a7fb854a1c9910160405180910390a35061065f60015f80516020611f9183398151915255565b50565b61066a6117bc565b6001600160a01b03811661069157604051632aa9a70360e11b815260040160405180910390fd5b6001600160a01b0381165f818152600160208190526040808320805460ff1916909217909155517fdcb46b4634af6065fbbeab63938d70a7cc803a67bc6a5bb9f28fb8d9a5c4ce149190a250565b6106e7611770565b6106ef6117a1565b5f838152600260205260408120805490910361072157604051635744e81560e11b8152600481018590526024016104c3565b5f6001820154610100900460ff1660038111156107405761074061199f565b1461077357838160010160019054906101000a900460ff16604051631ee57c0960e01b81526004016104c3929190611b41565b60018101805461ff00191661020017905560078101610793838583611bf5565b506005810180545f918290556001830154604051919291620100009091046001600160a01b03169083905f6040518083038185875af1925050503d805f81146107f7576040519150601f19603f3d011682016040523d82523d5f602084013e6107fc565b606091505b505090508061081e5760405163611ccb2960e01b815260040160405180910390fd5b6001830154604051838152620100009091046001600160a01b03169087907f0d736493ece6b7d52e34dd028d3d9d0aa75de37339f3da6b3514e70e231ed2a59060200160405180910390a3336001600160a01b0316867f491534db70fb4c39274acaa0f129d2ee609c78522143041c39a83f81d22b644d87876040516108a5929190611cd7565b60405180910390a35050506108c660015f80516020611f9183398151915255565b505050565b6108d36117bc565b6001600160a01b0381165f81815260016020526040808220805460ff19169055517fce6ed85c24e62fbd23486204879240944c169dfcde2952b0c15f12bf120296699190a250565b6109236117bc565b60065460408051918252602082018390527f4f2ec434f439e1b369b0ed283b0ce84720bf1183c4ccb3df21c3e8649d84c67d910160405180910390a1600655565b5f61096d6117a1565b60065434101561099d576006546040516335481ba160e01b815234600482015260248101919091526044016104c3565b604051638dd18d2d60e01b8152600481018590525f907f00000000000000000000000000000000000000000000000000000000000000006001600160a01b031690638dd18d2d9060240161012060405180830381865afa158015610a03573d5f803e3d5ffd5b505050506040513d601f19601f82011682018060405250810190610a279190611d6c565b6005805460018101909155604080516101a08101909152818152909350909150602081015f81526020015f8152602001336001600160a01b0316815260200182602001516001600160a01b0316815260200186815260200185858080601f0160208091040260200160405190810160405280939291908181526020018383808284375f920191909152505050908252503460208201524265ffffffffffff81166040830152600754606090920191610ade91611e26565b65ffffffffffff1681525f602080830182905260085463ffffffff166040808501919091528051808301825283815260609094019390935285825260028082529290912083518155908301516001828101805493949293909260ff1990911691908490811115610b5057610b5061199f565b0217905550604082015160018201805461ff001916610100836003811115610b7a57610b7a61199f565b0217905550606082015160018201805462010000600160b01b031916620100006001600160a01b039384160217905560808301516002830180546001600160a01b0319169190921617905560a0820151600382015560c08201516004820190610be39082611e3f565b5060e0820151600582015561010082015160068201805461012085015161014086015161016087015165ffffffffffff9586166bffffffffffffffffffffffff1990941693909317600160301b95909216949094021767ffffffffffffffff60601b1916600160601b63ffffffff9485160263ffffffff60801b191617600160801b93909116929092029190911790556101808201516007820190610c889082611e3f565b5090505080602001516001600160a01b0316336001600160a01b0316837f1f2104edebb899ae18ab483a552bd1a0dbb41d7b9c8a9e16275a73dbb5c1f5255f8934604051610cd893929190611eff565b60405180910390a450610cf760015f80516020611f9183398151915255565b9392505050565b610d066117bc565b610d0f5f6117e8565b565b5f610d1a6117a1565b600654341015610d4a576006546040516335481ba160e01b815234600482015260248101919091526044016104c3565b6001600160a01b038416610d7157604051632aa9a70360e11b815260040160405180910390fd5b50600580546001808201909255604080516101a081019091528181529091602082019081526020015f8152602001336001600160a01b03168152602001856001600160a01b031681526020015f815260200184848080601f0160208091040260200160405190810160405280939291908181526020018383808284375f920191909152505050908252503460208201524265ffffffffffff81166040830152600754606090920191610e2291611e26565b65ffffffffffff1681525f602080830182905260085463ffffffff166040808501919091528051808301825283815260609094019390935284825260028082529290912083518155908301516001828101805493949293909260ff1990911691908490811115610e9457610e9461199f565b0217905550604082015160018201805461ff001916610100836003811115610ebe57610ebe61199f565b0217905550606082015160018201805462010000600160b01b031916620100006001600160a01b039384160217905560808301516002830180546001600160a01b0319169190921617905560a0820151600382015560c08201516004820190610f279082611e3f565b5060e0820151600582015561010082015160068201805461012085015161014086015161016087015165ffffffffffff9586166bffffffffffffffffffffffff1990941693909317600160301b95909216949094021767ffffffffffffffff60601b1916600160601b63ffffffff9485160263ffffffff60801b191617600160801b93909116929092029190911790556101808201516007820190610fcc9082611e3f565b50905050836001600160a01b0316336001600160a01b0316827f1f2104edebb899ae18ab483a552bd1a0dbb41d7b9c8a9e16275a73dbb5c1f52560015f3460405161101993929190611eff565b60405180910390a4610cf760015f80516020611f9183398151915255565b5f60016005546110479190611f1e565b905090565b611054611770565b61105c6117a1565b5f838152600260205260408120805490910361108e57604051635744e81560e11b8152600481018590526024016104c3565b5f6001820154610100900460ff1660038111156110ad576110ad61199f565b146110e057838160010160019054906101000a900460ff16604051631ee57c0960e01b81526004016104c3929190611b41565b600681015463ffffffff600160801b82048116600160601b90920416101561111e57604051634113c8e760e11b8152600481018590526024016104c3565b60018101805461ff0019166101001790556007810161113e838583611bf5565b505f600182015460ff1660028111156111595761115961199f565b036111e457600381015460405163eb929ad560e01b81526001600160a01b037f0000000000000000000000000000000000000000000000000000000000000000169163eb929ad5916111b2919087908790600401611f31565b5f604051808303815f87803b1580156111c9575f80fd5b505af19250505080156111da575060015b156112fa576112fa565b60018082015460ff1660028111156111fe576111fe61199f565b03611257576002808201546040516313c703e760e11b81526001600160a01b037f000000000000000000000000000000000000000000000000000000000000000081169363278e07ce936111b293921691600401611f53565b6002600182015460ff1660028111156112725761127261199f565b036112fa576002810154604051637baa47d960e01b81526001600160a01b037f0000000000000000000000000000000000000000000000000000000000000000811692637baa47d9926112d092919091169087908790600401611f6c565b5f604051808303815f87803b1580156112e7575f80fd5b505af19250505080156112f8575060015b505b6005810180545f918290556004546040519192916001600160a01b039091169083908381818185875af1925050503d805f8114611352576040519150601f19603f3d011682016040523d82523d5f602084013e611357565b606091505b50509050806113795760405163611ccb2960e01b815260040160405180910390fd5b6004546040518381526001600160a01b039091169087907fba00be99b4ba100b19f2c080160ab22c2b8f4d62027d6524c532e7578d7a43b49060200160405180910390a3336001600160a01b0316867ff302302ba6668191d586b89b528181a8a3d1faa6c0c80b2cb06752d174557d3187876040516108a5929190611cd7565b611467604080516101a081019091525f808252602082019081526020015f81525f602082018190526040820181905260608083018290526080830181905260a0830182905260c0830182905260e0830182905261010083018290526101208301919091526101409091015290565b5f8281526002602081815260409283902083516101a0810190945280548452600181015490929184019160ff909116908111156114a6576114a661199f565b60028111156114b7576114b761199f565b81526020016001820160019054906101000a900460ff1660038111156114df576114df61199f565b60038111156114f0576114f061199f565b815260018201546001600160a01b03620100009091048116602083015260028301541660408201526003820154606082015260048201805460809092019161153790611b72565b80601f016020809104026020016040519081016040528092919081815260200182805461156390611b72565b80156115ae5780601f10611585576101008083540402835291602001916115ae565b820191905f5260205f20905b81548152906001019060200180831161159157829003601f168201915b505050918352505060058201546020820152600682015465ffffffffffff8082166040840152600160301b820416606083015263ffffffff600160601b820481166080840152600160801b9091041660a082015260078201805460c09092019161161790611b72565b80601f016020809104026020016040519081016040528092919081815260200182805461164390611b72565b801561168e5780601f106116655761010080835404028352916020019161168e565b820191905f5260205f20905b81548152906001019060200180831161167157829003601f168201915b5050505050815250509050919050565b6116a66117bc565b6001600160a01b0381166116cd57604051632aa9a70360e11b815260040160405180910390fd5b600454604080516001600160a01b03928316815291831660208301527f4ab5be82436d353e61ca18726e984e561f5c1cc7c6d38b29d2553c790434705a910160405180910390a1600480546001600160a01b0319166001600160a01b0392909216919091179055565b61173e6117bc565b6001600160a01b03811661176757604051631e4fbdf760e01b81525f60048201526024016104c3565b61065f816117e8565b335f9081526001602052604090205460ff16610d0f576040516391a1d7f360e01b81523360048201526024016104c3565b6117a9611837565b60025f80516020611f9183398151915255565b5f546001600160a01b03163314610d0f5760405163118cdaa760e01b81523360048201526024016104c3565b5f80546001600160a01b038381166001600160a01b0319831681178455604051919092169283917f8be0079c531659141344cd1fd0a4f28419497f9722a3daafe3b4186f6b6457e09190a35050565b5f80516020611f9183398151915254600203610d0f57604051633ee5aeb560e01b815260040160405180910390fd5b5f60208284031215611876575f80fd5b5035919050565b6001600160a01b038116811461065f575f80fd5b5f602082840312156118a1575f80fd5b8135610cf78161187d565b5f8083601f8401126118bc575f80fd5b50813567ffffffffffffffff8111156118d3575f80fd5b6020830191508360208285010111156118ea575f80fd5b9250929050565b5f805f60408486031215611903575f80fd5b83359250602084013567ffffffffffffffff811115611920575f80fd5b61192c868287016118ac565b9497909650939450505050565b5f806040838503121561194a575f80fd5b82359150602083013561195c8161187d565b809150509250929050565b5f805f60408486031215611979575f80fd5b83356119848161187d565b9250602084013567ffffffffffffffff811115611920575f80fd5b634e487b7160e01b5f52602160045260245ffd5b600381106119c3576119c361199f565b9052565b6004811061065f5761065f61199f565b6119c3816119c7565b5f81518084525f5b81811015611a04576020818501810151868301820152016119e8565b505f602082860101526020601f19601f83011685010191505092915050565b60208152815160208201525f6020830151611a4160408401826119b3565b506040830151611a5460608401826119d7565b5060608301516001600160a01b03811660808401525060808301516001600160a01b03811660a08401525060a083015160c083015260c08301516101a08060e0850152611aa56101c08501836119e0565b60e086015161010086810191909152860151909250610120611ad08187018365ffffffffffff169052565b8601519050610140611aeb8682018365ffffffffffff169052565b8601519050610160611b048682018363ffffffff169052565b8601519050610180611b1d8682018363ffffffff169052565b860151858403601f1901838701529050611b3783826119e0565b9695505050505050565b82815260408101611b51836119c7565b8260208301529392505050565b634e487b7160e01b5f52604160045260245ffd5b600181811c90821680611b8657607f821691505b602082108103611ba457634e487b7160e01b5f52602260045260245ffd5b50919050565b601f8211156108c657805f5260205f20601f840160051c81016020851015611bcf5750805b601f840160051c820191505b81811015611bee575f8155600101611bdb565b5050505050565b67ffffffffffffffff831115611c0d57611c0d611b5e565b611c2183611c1b8354611b72565b83611baa565b5f601f841160018114611c52575f8515611c3b5750838201355b5f19600387901b1c1916600186901b178355611bee565b5f83815260208120601f198716915b82811015611c815786850135825560209485019460019092019101611c61565b5086821015611c9d575f1960f88860031b161c19848701351681555b505060018560011b0183555050505050565b81835281816020850137505f828201602090810191909152601f909101601f19169091010190565b602081525f611cea602083018486611caf565b949350505050565b604051610120810167ffffffffffffffff81118282101715611d1657611d16611b5e565b60405290565b8051611d278161187d565b919050565b805160068110611d27575f80fd5b805160048110611d27575f80fd5b805165ffffffffffff81168114611d27575f80fd5b80518015158114611d27575f80fd5b5f6101208284031215611d7d575f80fd5b611d85611cf2565b82518152611d9560208401611d1c565b6020820152611da660408401611d1c565b6040820152611db760608401611d2c565b6060820152611dc860808401611d3a565b6080820152611dd960a08401611d48565b60a0820152611dea60c08401611d48565b60c082015260e083015160e0820152610100611e07818501611d5d565b908201529392505050565b634e487b7160e01b5f52601160045260245ffd5b80820180821115611e3957611e39611e12565b92915050565b815167ffffffffffffffff811115611e5957611e59611b5e565b611e6d81611e678454611b72565b84611baa565b602080601f831160018114611ea0575f8415611e895750858301515b5f19600386901b1c1916600185901b178555611ef7565b5f85815260208120601f198616915b82811015611ece57888601518255948401946001909101908401611eaf565b5085821015611eeb57878501515f19600388901b60f8161c191681555b505060018460011b0185555b505050505050565b60608101611f0d82866119b3565b602082019390935260400152919050565b81810381811115611e3957611e39611e12565b838152604060208201525f611f4a604083018486611caf565b95945050505050565b6001600160a01b038316815260408101611b51836119c7565b6001600160a01b03841681526040602082018190525f90611f4a9083018486611caf56fe9b779b17422d0df92223018b32b4d1fa46e071723d6817e2486d003becc55f00a2646970667358221220e96865c0938b45addb434f1bb41dd1ecf22529f73dd1bbfd9d4c13e832c0c16a64736f6c63430008180033","linkReferences":{}},"methodIdentifiers":{"CREDENTIAL_NFT()":"9af68304","REGISTRY()":"06433b1b","WORKER_IDENTITY()":"f52174a4","addCouncilMember(address)":"289f5375","dismiss(uint256,string)":"39a32aed","disputeStake()":"300a0a71","getDispute(uint256)":"e3a96cbd","hasVoted(uint256,address)":"43859632","isCouncilMember(address)":"ebd7dc52","owner()":"8da5cb5b","quorum()":"1703a018","raiseCredentialDispute(uint256,string)":"640e8828","raiseIdentityDispute(address,string)":"ba1566dc","removeCouncilMember(address)":"5720439d","renounceOwnership()":"715018a6","setDisputeStake(uint256)":"61d36d08","setTreasury(address)":"f0f44260","totalDisputes()":"c5e4ccc4","transferOwnership(address)":"f2fde38b","treasury()":"61d027b3","uphold(uint256,string)":"ca5b8f93","vote(uint256)":"0121b93f","votingWindow()":"72a6300a"},"id":53}