{"abi":[{"type":"constructor","inputs":[{"name":"initialOwner","type":"address","internalType":"address"},{"name":"_registry","type":"address","internalType":"address"},{"name":"initialCouncil","type":"address[]","internalType":"address[]"},{"name":"_quorum","type":"uint32","internalType":"uint32"},{"name":"_votingWindow","type":"uint256","internalType":"uint256"}],"stateMutability":"nonpayable"},{"type":"function","name":"REGISTRY","inputs":[],"outputs":[{"name":"","type":"address","internalType":"contract CredentialRegistry"}],"stateMutability":"view"},{"type":"function","name":"addCouncilMember","inputs":[{"name":"member","type":"address","internalType":"address"}],"outputs":[],"stateMutability":"nonpayable"},{"type":"function","name":"cancel","inputs":[{"name":"proposalId","type":"uint256","internalType":"uint256"}],"outputs":[],"stateMutability":"nonpayable"},{"type":"function","name":"councilSize","inputs":[],"outputs":[{"name":"","type":"uint256","internalType":"uint256"}],"stateMutability":"view"},{"type":"function","name":"execute","inputs":[{"name":"proposalId","type":"uint256","internalType":"uint256"}],"outputs":[],"stateMutability":"nonpayable"},{"type":"function","name":"getCouncilMembers","inputs":[],"outputs":[{"name":"","type":"address[]","internalType":"address[]"}],"stateMutability":"view"},{"type":"function","name":"getProposal","inputs":[{"name":"proposalId","type":"uint256","internalType":"uint256"}],"outputs":[{"name":"","type":"tuple","internalType":"struct IssuerGovernance.Proposal","components":[{"name":"proposalId","type":"uint256","internalType":"uint256"},{"name":"proposalType","type":"uint8","internalType":"enum IssuerGovernance.ProposalType"},{"name":"status","type":"uint8","internalType":"enum IssuerGovernance.ProposalStatus"},{"name":"targetInstitution","type":"address","internalType":"address"},{"name":"trustLevel","type":"uint8","internalType":"enum CredentialRegistry.TrustLevel"},{"name":"reason","type":"string","internalType":"string"},{"name":"proposedBy","type":"address","internalType":"address"},{"name":"createdAt","type":"uint48","internalType":"uint48"},{"name":"expiresAt","type":"uint48","internalType":"uint48"},{"name":"voteCount","type":"uint32","internalType":"uint32"},{"name":"requiredQuorum","type":"uint32","internalType":"uint32"}]}],"stateMutability":"view"},{"type":"function","name":"hasVoted","inputs":[{"name":"","type":"uint256","internalType":"uint256"},{"name":"","type":"address","internalType":"address"}],"outputs":[{"name":"","type":"bool","internalType":"bool"}],"stateMutability":"view"},{"type":"function","name":"isCouncilMember","inputs":[{"name":"","type":"address","internalType":"address"}],"outputs":[{"name":"","type":"bool","internalType":"bool"}],"stateMutability":"view"},{"type":"function","name":"owner","inputs":[],"outputs":[{"name":"","type":"address","internalType":"address"}],"stateMutability":"view"},{"type":"function","name":"proposeApprove","inputs":[{"name":"institution","type":"address","internalType":"address"},{"name":"trustLevel","type":"uint8","internalType":"enum CredentialRegistry.TrustLevel"},{"name":"reason","type":"string","internalType":"string"}],"outputs":[{"name":"proposalId","type":"uint256","internalType":"uint256"}],"stateMutability":"nonpayable"},{"type":"function","name":"proposeRevoke","inputs":[{"name":"institution","type":"address","internalType":"address"},{"name":"reason","type":"string","internalType":"string"}],"outputs":[{"name":"proposalId","type":"uint256","internalType":"uint256"}],"stateMutability":"nonpayable"},{"type":"function","name":"proposeUpdateTrustLevel","inputs":[{"name":"institution","type":"address","internalType":"address"},{"name":"newLevel","type":"uint8","internalType":"enum CredentialRegistry.TrustLevel"},{"name":"reason","type":"string","internalType":"string"}],"outputs":[{"name":"proposalId","type":"uint256","internalType":"uint256"}],"stateMutability":"nonpayable"},{"type":"function","name":"quorum","inputs":[],"outputs":[{"name":"","type":"uint32","internalType":"uint32"}],"stateMutability":"view"},{"type":"function","name":"removeCouncilMember","inputs":[{"name":"member","type":"address","internalType":"address"}],"outputs":[],"stateMutability":"nonpayable"},{"type":"function","name":"renounceOwnership","inputs":[],"outputs":[],"stateMutability":"nonpayable"},{"type":"function","name":"setQuorum","inputs":[{"name":"newQuorum","type":"uint32","internalType":"uint32"}],"outputs":[],"stateMutability":"nonpayable"},{"type":"function","name":"setVotingWindow","inputs":[{"name":"newWindow","type":"uint256","internalType":"uint256"}],"outputs":[],"stateMutability":"nonpayable"},{"type":"function","name":"totalProposals","inputs":[],"outputs":[{"name":"","type":"uint256","internalType":"uint256"}],"stateMutability":"view"},{"type":"function","name":"transferOwnership","inputs":[{"name":"newOwner","type":"address","internalType":"address"}],"outputs":[],"stateMutability":"nonpayable"},{"type":"function","name":"vote","inputs":[{"name":"proposalId","type":"uint256","internalType":"uint256"}],"outputs":[],"stateMutability":"nonpayable"},{"type":"function","name":"votingWindow","inputs":[],"outputs":[{"name":"","type":"uint256","internalType":"uint256"}],"stateMutability":"view"},{"type":"event","name":"CouncilMemberAdded","inputs":[{"name":"member","type":"address","indexed":true,"internalType":"address"}],"anonymous":false},{"type":"event","name":"CouncilMemberRemoved","inputs":[{"name":"member","type":"address","indexed":true,"internalType":"address"}],"anonymous":false},{"type":"event","name":"OwnershipTransferred","inputs":[{"name":"previousOwner","type":"address","indexed":true,"internalType":"address"},{"name":"newOwner","type":"address","indexed":true,"internalType":"address"}],"anonymous":false},{"type":"event","name":"ProposalCancelled","inputs":[{"name":"proposalId","type":"uint256","indexed":true,"internalType":"uint256"},{"name":"cancelledBy","type":"address","indexed":false,"internalType":"address"}],"anonymous":false},{"type":"event","name":"ProposalCreated","inputs":[{"name":"proposalId","type":"uint256","indexed":true,"internalType":"uint256"},{"name":"proposalType","type":"uint8","indexed":false,"internalType":"enum IssuerGovernance.ProposalType"},{"name":"targetInstitution","type":"address","indexed":true,"internalType":"address"},{"name":"proposedBy","type":"address","indexed":false,"internalType":"address"},{"name":"expiresAt","type":"uint48","indexed":false,"internalType":"uint48"}],"anonymous":false},{"type":"event","name":"ProposalExecuted","inputs":[{"name":"proposalId","type":"uint256","indexed":true,"internalType":"uint256"},{"name":"proposalType","type":"uint8","indexed":false,"internalType":"enum IssuerGovernance.ProposalType"},{"name":"targetInstitution","type":"address","indexed":true,"internalType":"address"},{"name":"executedBy","type":"address","indexed":false,"internalType":"address"}],"anonymous":false},{"type":"event","name":"ProposalRejected","inputs":[{"name":"proposalId","type":"uint256","indexed":true,"internalType":"uint256"}],"anonymous":false},{"type":"event","name":"QuorumUpdated","inputs":[{"name":"oldQuorum","type":"uint32","indexed":false,"internalType":"uint32"},{"name":"newQuorum","type":"uint32","indexed":false,"internalType":"uint32"}],"anonymous":false},{"type":"event","name":"VoteCast","inputs":[{"name":"proposalId","type":"uint256","indexed":true,"internalType":"uint256"},{"name":"voter","type":"address","indexed":true,"internalType":"address"},{"name":"voteCount","type":"uint32","indexed":false,"internalType":"uint32"},{"name":"requiredQuorum","type":"uint32","indexed":false,"internalType":"uint32"}],"anonymous":false},{"type":"event","name":"VotingWindowUpdated","inputs":[{"name":"oldWindow","type":"uint256","indexed":false,"internalType":"uint256"},{"name":"newWindow","type":"uint256","indexed":false,"internalType":"uint256"}],"anonymous":false},{"type":"error","name":"Governance__AlreadyCouncilMember","inputs":[{"name":"member","type":"address","internalType":"address"}]},{"type":"error","name":"Governance__AlreadyVoted","inputs":[{"name":"voter","type":"address","internalType":"address"},{"name":"proposalId","type":"uint256","internalType":"uint256"}]},{"type":"error","name":"Governance__InvalidQuorum","inputs":[]},{"type":"error","name":"Governance__NotCouncilMember","inputs":[{"name":"caller","type":"address","internalType":"address"}]},{"type":"error","name":"Governance__NotCouncilMemberToRemove","inputs":[{"name":"member","type":"address","internalType":"address"}]},{"type":"error","name":"Governance__ProposalExpired","inputs":[{"name":"proposalId","type":"uint256","internalType":"uint256"}]},{"type":"error","name":"Governance__ProposalNotFound","inputs":[{"name":"proposalId","type":"uint256","internalType":"uint256"}]},{"type":"error","name":"Governance__ProposalNotPassed","inputs":[{"name":"proposalId","type":"uint256","internalType":"uint256"},{"name":"status","type":"uint8","internalType":"enum IssuerGovernance.ProposalStatus"}]},{"type":"error","name":"Governance__QuorumExceedsCouncil","inputs":[{"name":"quorum","type":"uint32","internalType":"uint32"},{"name":"councilSize","type":"uint256","internalType":"uint256"}]},{"type":"error","name":"Governance__ZeroAddress","inputs":[]},{"type":"error","name":"OwnableInvalidOwner","inputs":[{"name":"owner","type":"address","internalType":"address"}]},{"type":"error","name":"OwnableUnauthorizedAccount","inputs":[{"name":"account","type":"address","internalType":"address"}]},{"type":"error","name":"ReentrancyGuardReentrantCall","inputs":[]}],"bytecode":{"object":"0x60a060405234801562000010575f80fd5b5060405162001ea338038062001ea38339810160408190526200003391620002da565b846001600160a01b0381166200006357604051631e4fbdf760e01b81525f60048201526024015b60405180910390fd5b6200006e8162000247565b5060017f9b779b17422d0df92223018b32b4d1fa46e071723d6817e2486d003becc55f00556001600160a01b038416620000bb5760405163239261b360e11b815260040160405180910390fd5b8163ffffffff165f03620000e25760405163ac49b4df60e01b815260040160405180910390fd5b82518263ffffffff1611156200011e5782516040516306ae494560e21b815263ffffffff8416600482015260248101919091526044016200005a565b6001600160a01b0384166080526006805463ffffffff191663ffffffff8416179055600781905560016005555f5b83518110156200023b575f8482815181106200016c576200016c620003ea565b602002602001015190505f6001600160a01b0316816001600160a01b031603620001a95760405163239261b360e11b815260040160405180910390fd5b6001600160a01b0381165f818152600160208190526040808320805460ff19168317905560028054928301815583527f405787fa12a823e0f2b7631cc41b3ba8828b3321ca811111fa75cd3aa3bb5ace90910180546001600160a01b03191684179055517fdcb46b4634af6065fbbeab63938d70a7cc803a67bc6a5bb9f28fb8d9a5c4ce149190a2506001016200014c565b505050505050620003fe565b5f80546001600160a01b038381166001600160a01b0319831681178455604051919092169283917f8be0079c531659141344cd1fd0a4f28419497f9722a3daafe3b4186f6b6457e09190a35050565b80516001600160a01b0381168114620002ad575f80fd5b919050565b634e487b7160e01b5f52604160045260245ffd5b805163ffffffff81168114620002ad575f80fd5b5f805f805f60a08688031215620002ef575f80fd5b620002fa8662000296565b945060206200030b81880162000296565b60408801519095506001600160401b038082111562000328575f80fd5b818901915089601f8301126200033c575f80fd5b815181811115620003515762000351620002b2565b8060051b604051601f19603f83011681018181108582111715620003795762000379620002b2565b60405291825284820192508381018501918c83111562000397575f80fd5b938501935b82851015620003c057620003b08562000296565b845293850193928501926200039c565b809850505050505050620003d760608701620002c6565b9150608086015190509295509295909350565b634e487b7160e01b5f52603260045260245ffd5b608051611a776200042c5f395f818161015b01528181610df801528181610ead0152610f2d0152611a775ff3fe608060405234801561000f575f80fd5b506004361061013d575f3560e01c806372a6300a116100b4578063c7f758a811610079578063c7f758a8146102c2578063e329fed7146102e2578063ebd7dc52146102f5578063f2fde38b14610317578063f80d0f621461032a578063fe0d94c11461033d575f80fd5b806372a6300a1461027b5780637c7c55f2146102845780638da5cb5b1461029757806399d17732146102a7578063a78d80fc146102ba575f80fd5b806340e58ee51161010557806340e58ee5146101f357806343859632146102065780635720439d14610243578063606a6b76146102565780636c79b4951461026b578063715018a614610273575f80fd5b80630121b93f1461014157806306433b1b146101565780631703a0181461019a5780632535b2c2146101bf578063289f5375146101e0575b5f80fd5b61015461014f3660046113de565b610350565b005b61017d7f000000000000000000000000000000000000000000000000000000000000000081565b6040516001600160a01b0390911681526020015b60405180910390f35b6006546101aa9063ffffffff1681565b60405163ffffffff9091168152602001610191565b6101d26101cd366004611455565b61055e565b604051908152602001610191565b6101546101ee3660046114b7565b61057e565b6101546102013660046113de565b61067c565b6102336102143660046114d0565b600460209081525f928352604080842090915290825290205460ff1681565b6040519015158152602001610191565b6101546102513660046114b7565b610702565b61025e6108f8565b60405161019191906114fa565b6002546101d2565b610154610958565b6101d260075481565b6101546102923660046113de565b61096b565b5f546001600160a01b031661017d565b6101d26102b5366004611546565b6109b4565b6101d26109d5565b6102d56102d03660046113de565b6109ea565b6040516101919190611620565b6101546102f0366004611718565b610c08565b6102336103033660046114b7565b60016020525f908152604090205460ff1681565b6101546103253660046114b7565b610cd2565b6101d2610338366004611455565b610d0c565b61015461034b3660046113de565b610d22565b61035861100f565b610360611040565b5f81815260036020526040812080549091036103975760405163891932f960e01b8152600481018390526024015b60405180910390fd5b5f6001820154610100900460ff1660048111156103b6576103b6611595565b146103e957818160010160019054906101000a900460ff16604051632597357f60e01b815260040161038e92919061173b565b6003810154600160d01b900465ffffffffffff164211156104455760018101805461ff00191661030017905560405182907fd92fba445edb3153b571e6df782d7a66fd0ce668519273670820ee3a86da0ef4905f90a250610545565b5f82815260046020908152604080832033845290915290205460ff1615610488576040516318207c4d60e01b81523360048201526024810183905260440161038e565b5f82815260046020818152604080842033808652908352938190208054600160ff199091168117909155928501805463ffffffff19811663ffffffff9182169095018116948517918290558251948552640100000000909104169183019190915284917f7a859a8e34640cdac55f1f7fb662cda995cfd3627a1e7f0eb6887da43b62bdcd910160405180910390a3600481015463ffffffff640100000000820481169116106105435760018101805461ff0019166101001790555b505b61055b60015f80516020611a2283398151915255565b50565b5f61056761100f565b61057560028686868661105b565b95945050505050565b610586611334565b6001600160a01b0381166105ad5760405163239261b360e11b815260040160405180910390fd5b6001600160a01b0381165f9081526001602052604090205460ff16156105f157604051630696536f60e11b81526001600160a01b038216600482015260240161038e565b6001600160a01b0381165f818152600160208190526040808320805460ff19168317905560028054928301815583527f405787fa12a823e0f2b7631cc41b3ba8828b3321ca811111fa75cd3aa3bb5ace90910180546001600160a01b03191684179055517fdcb46b4634af6065fbbeab63938d70a7cc803a67bc6a5bb9f28fb8d9a5c4ce149190a250565b610684611334565b5f81815260036020526040812080549091036106b65760405163891932f960e01b81526004810183905260240161038e565b60018101805461040061ff001990911617905560405133815282907f74c34a008ce735d9fcf0bd03a9b238d212ad4c441c020661f4ffbb6442645b859060200160405180910390a25050565b61070a611334565b6001600160a01b0381165f9081526001602052604090205460ff1661074d576040516325610e0f60e01b81526001600160a01b038216600482015260240161038e565b60025461075c90600190611763565b60065463ffffffff1611156107ad5760065460025463ffffffff9091169061078690600190611763565b6040516306ae494560e21b815263ffffffff9092166004830152602482015260440161038e565b6001600160a01b0381165f908152600160205260408120805460ff191690555b6002548110156108c157816001600160a01b0316600282815481106107f4576107f461177c565b5f918252602090912001546001600160a01b0316036108b9576002805461081d90600190611763565b8154811061082d5761082d61177c565b5f91825260209091200154600280546001600160a01b0390921691839081106108585761085861177c565b905f5260205f20015f6101000a8154816001600160a01b0302191690836001600160a01b03160217905550600280548061089457610894611790565b5f8281526020902081015f1990810180546001600160a01b03191690550190556108c1565b6001016107cd565b506040516001600160a01b038216907fce6ed85c24e62fbd23486204879240944c169dfcde2952b0c15f12bf12029669905f90a250565b6060600280548060200260200160405190810160405280929190818152602001828054801561094e57602002820191905f5260205f20905b81546001600160a01b03168152600190910190602001808311610930575b5050505050905090565b610960611334565b6109695f611360565b565b610973611334565b60075460408051918252602082018390527f255030ba1360ca309268fbff7b84237e74a5de488f686bc5970e834e94e9028e910160405180910390a1600755565b5f6109bd61100f565b6109cb6001855f868661105b565b90505b9392505050565b5f60016005546109e59190611763565b905090565b60408051610160810182525f8082526020820181905291810182905260608082018390526080820183905260a082015260c0810182905260e08101829052610100810182905261012081018290526101408101919091525f8281526003602090815260409182902082516101608101909352805483526001810154909183019060ff166002811115610a7e57610a7e611595565b6002811115610a8f57610a8f611595565b81526020016001820160019054906101000a900460ff166004811115610ab757610ab7611595565b6004811115610ac857610ac8611595565b815260018201546201000081046001600160a01b03166020830152604090910190600160b01b900460ff166003811115610b0457610b04611595565b6003811115610b1557610b15611595565b8152602001600282018054610b29906117a4565b80601f0160208091040260200160405190810160405280929190818152602001828054610b55906117a4565b8015610ba05780601f10610b7757610100808354040283529160200191610ba0565b820191905f5260205f20905b815481529060010190602001808311610b8357829003601f168201915b505050918352505060038201546001600160a01b038116602083015265ffffffffffff600160a01b820481166040840152600160d01b90910416606082015260049091015463ffffffff80821660808401526401000000009091041660a09091015292915050565b610c10611334565b8063ffffffff165f03610c365760405163ac49b4df60e01b815260040160405180910390fd5b60025463ffffffff82161115610c72576002546040516306ae494560e21b815263ffffffff83166004820152602481019190915260440161038e565b6006546040805163ffffffff928316815291831660208301527f6b25ecb86b78350c27ff9ed279ad8aec3f418d60a233cdcab2bddb8713e10c5f910160405180910390a16006805463ffffffff191663ffffffff92909216919091179055565b610cda611334565b6001600160a01b038116610d0357604051631e4fbdf760e01b81525f600482015260240161038e565b61055b81611360565b5f610d1561100f565b6105755f8686868661105b565b610d2a611040565b5f8181526003602052604081208054909103610d5c5760405163891932f960e01b81526004810183905260240161038e565b600180820154610100900460ff166004811115610d7b57610d7b611595565b14610dae57818160010160019054906101000a900460ff16604051632597357f60e01b815260040161038e92919061173b565b60018101805461020061ff00198216179091555f9060ff166002811115610dd757610dd7611595565b03610e725760018101546040516329b1874b60e01b81526001600160a01b037f00000000000000000000000000000000000000000000000000000000000000008116926329b1874b92610e4092620100008304169160ff600160b01b90910416906004016117dc565b5f604051808303815f87803b158015610e57575f80fd5b505af1158015610e69573d5f803e3d5ffd5b50505050610fa3565b60018082015460ff166002811115610e8c57610e8c611595565b03610ef1576001810154604051637baa47d960e01b81526001600160a01b037f0000000000000000000000000000000000000000000000000000000000000000811692637baa47d992610e4092620100009092049091169060028601906004016117f9565b6002600182015460ff166002811115610f0c57610f0c611595565b03610fa357600181015460405163433a027360e11b81526001600160a01b037f000000000000000000000000000000000000000000000000000000000000000081169263867404e692610f7592620100008304169160ff600160b01b90910416906004016117dc565b5f604051808303815f87803b158015610f8c575f80fd5b505af1158015610f9e573d5f803e3d5ffd5b505050505b60018101546040516001600160a01b03620100008304169184917f8e48f715a9c30a7f154f71df11f67c88935f6dd44d8c167fba38c7507ed1ab8a91610ff09160ff909116903390611893565b60405180910390a35061055b60015f80516020611a2283398151915255565b335f9081526001602052604090205460ff1661096957604051632af0b51d60e21b815233600482015260240161038e565b6110486113af565b60025f80516020611a2283398151915255565b5f6001600160a01b0385166110835760405163239261b360e11b815260040160405180910390fd5b506005805460018101909155604080516101608101909152818152602081018760028111156110b4576110b4611595565b81526020015f8152602001866001600160a01b031681526020018560038111156110e0576110e0611595565b815260200184848080601f0160208091040260200160405190810160405280939291908181526020018383808284375f920191909152505050908252503360208201524265ffffffffffff81166040830152600754606090920191611144916118b9565b65ffffffffffff1681525f602080830182905260065463ffffffff1660409384015284825260038152919020825181559082015160018281018054909160ff199091169083600281111561119a5761119a611595565b0217905550604082015160018201805461ff0019166101008360048111156111c4576111c4611595565b021790555060608201516001820180546001600160a01b03909216620100000262010000600160b01b031983168117825560808501519260ff60b01b1990911662010000600160b81b031990911617600160b01b83600381111561122a5761122a611595565b021790555060a08201516002820190611243908261192c565b5060c082015160038201805460e085015161010086015165ffffffffffff908116600160d01b026001600160d01b0391909216600160a01b026001600160d01b03199093166001600160a01b03958616179290921791909116179055610120830151600490920180546101409094015163ffffffff9081166401000000000267ffffffffffffffff199095169316929092179290921790556007549086169082907f3e704a02c705e7b2ea7375b56a30659477dfbbca2f2d5e48a9aafb0f3df15d76908990339061131490426118b9565b604051611323939291906119ec565b60405180910390a395945050505050565b5f546001600160a01b031633146109695760405163118cdaa760e01b815233600482015260240161038e565b5f80546001600160a01b038381166001600160a01b0319831681178455604051919092169283917f8be0079c531659141344cd1fd0a4f28419497f9722a3daafe3b4186f6b6457e09190a35050565b5f80516020611a228339815191525460020361096957604051633ee5aeb560e01b815260040160405180910390fd5b5f602082840312156113ee575f80fd5b5035919050565b80356001600160a01b038116811461140b575f80fd5b919050565b5f8083601f840112611420575f80fd5b50813567ffffffffffffffff811115611437575f80fd5b60208301915083602082850101111561144e575f80fd5b9250929050565b5f805f8060608587031215611468575f80fd5b611471856113f5565b9350602085013560048110611484575f80fd5b9250604085013567ffffffffffffffff81111561149f575f80fd5b6114ab87828801611410565b95989497509550505050565b5f602082840312156114c7575f80fd5b6109ce826113f5565b5f80604083850312156114e1575f80fd5b823591506114f1602084016113f5565b90509250929050565b602080825282518282018190525f9190848201906040850190845b8181101561153a5783516001600160a01b031683529284019291840191600101611515565b50909695505050505050565b5f805f60408486031215611558575f80fd5b611561846113f5565b9250602084013567ffffffffffffffff81111561157c575f80fd5b61158886828701611410565b9497909650939450505050565b634e487b7160e01b5f52602160045260245ffd5b600381106115b9576115b9611595565b9052565b600581106115b9576115b9611595565b600481106115b9576115b9611595565b5f81518084525f5b81811015611601576020818501810151868301820152016115e5565b505f602082860101526020601f19601f83011685010191505092915050565b60208152815160208201525f602083015161163e60408401826115a9565b50604083015161165160608401826115bd565b5060608301516001600160a01b038116608084015250608083015161167960a08401826115cd565b5060a08301516101608060c08501526116966101808501836115dd565b915060c08501516116b260e08601826001600160a01b03169052565b5060e08501516101006116ce8187018365ffffffffffff169052565b86015190506101206116e98682018365ffffffffffff169052565b86015190506101406117028682018363ffffffff169052565b9095015163ffffffff1693019290925250919050565b5f60208284031215611728575f80fd5b813563ffffffff811681146109ce575f80fd5b828152604081016109ce60208301846115bd565b634e487b7160e01b5f52601160045260245ffd5b818103818111156117765761177661174f565b92915050565b634e487b7160e01b5f52603260045260245ffd5b634e487b7160e01b5f52603160045260245ffd5b600181811c908216806117b857607f821691505b6020821081036117d657634e487b7160e01b5f52602260045260245ffd5b50919050565b6001600160a01b0383168152604081016109ce60208301846115cd565b60018060a01b03831681525f6020604060208401525f845461181a816117a4565b806040870152606060018084165f811461183b576001811461185757611884565b60ff19851660608a0152606084151560051b8a01019550611884565b895f5260205f205f5b8581101561187b5781548b8201860152908301908801611860565b8a016060019650505b50939998505050505050505050565b604081016118a182856115a9565b6001600160a01b039290921660209190910152919050565b808201808211156117765761177661174f565b634e487b7160e01b5f52604160045260245ffd5b601f82111561192757805f5260205f20601f840160051c810160208510156119055750805b601f840160051c820191505b81811015611924575f8155600101611911565b50505b505050565b815167ffffffffffffffff811115611946576119466118cc565b61195a8161195484546117a4565b846118e0565b602080601f83116001811461198d575f84156119765750858301515b5f19600386901b1c1916600185901b1785556119e4565b5f85815260208120601f198616915b828110156119bb5788860151825594840194600190910190840161199c565b50858210156119d857878501515f19600388901b60f8161c191681555b505060018460011b0185555b505050505050565b606081016119fa82866115a9565b6001600160a01b0393909316602082015265ffffffffffff9190911660409091015291905056fe9b779b17422d0df92223018b32b4d1fa46e071723d6817e2486d003becc55f00a2646970667358221220a4a817ea66b871f2a2d9b16a2cc35ba5607ba2da893bf85c4af9945961c5862564736f6c63430008180033","linkReferences":{}},"methodIdentifiers":{"REGISTRY()":"06433b1b","addCouncilMember(address)":"289f5375","cancel(uint256)":"40e58ee5","councilSize()":"6c79b495","execute(uint256)":"fe0d94c1","getCouncilMembers()":"606a6b76","getProposal(uint256)":"c7f758a8","hasVoted(uint256,address)":"43859632","isCouncilMember(address)":"ebd7dc52","owner()":"8da5cb5b","proposeApprove(address,uint8,string)":"f80d0f62","proposeRevoke(address,string)":"99d17732","proposeUpdateTrustLevel(address,uint8,string)":"2535b2c2","quorum()":"1703a018","removeCouncilMember(address)":"5720439d","renounceOwnership()":"715018a6","setQuorum(uint32)":"e329fed7","setVotingWindow(uint256)":"7c7c55f2","totalProposals()":"a78d80fc","transferOwnership(address)":"f2fde38b","vote(uint256)":"0121b93f","votingWindow()":"72a6300a"},"id":54}