{"abi":[{"type":"constructor","inputs":[{"name":"asset","type":"address","internalType":"contract IERC20"},{"name":"initialOwner","type":"address","internalType":"address"},{"name":"_workerIdentity","type":"address","internalType":"address"},{"name":"_reputationScore","type":"address","internalType":"address"}],"stateMutability":"nonpayable"},{"type":"function","name":"REPUTATION_SCORE","inputs":[],"outputs":[{"name":"","type":"address","internalType":"contract ReputationScore"}],"stateMutability":"view"},{"type":"function","name":"WORKER_IDENTITY","inputs":[],"outputs":[{"name":"","type":"address","internalType":"contract IWorkerIdentity"}],"stateMutability":"view"},{"type":"function","name":"allowance","inputs":[{"name":"owner","type":"address","internalType":"address"},{"name":"spender","type":"address","internalType":"address"}],"outputs":[{"name":"","type":"uint256","internalType":"uint256"}],"stateMutability":"view"},{"type":"function","name":"approve","inputs":[{"name":"spender","type":"address","internalType":"address"},{"name":"value","type":"uint256","internalType":"uint256"}],"outputs":[{"name":"","type":"bool","internalType":"bool"}],"stateMutability":"nonpayable"},{"type":"function","name":"asset","inputs":[],"outputs":[{"name":"","type":"address","internalType":"address"}],"stateMutability":"view"},{"type":"function","name":"availableLiquidity","inputs":[],"outputs":[{"name":"","type":"uint256","internalType":"uint256"}],"stateMutability":"view"},{"type":"function","name":"balanceOf","inputs":[{"name":"account","type":"address","internalType":"address"}],"outputs":[{"name":"","type":"uint256","internalType":"uint256"}],"stateMutability":"view"},{"type":"function","name":"borrow","inputs":[{"name":"amount","type":"uint256","internalType":"uint256"}],"outputs":[{"name":"loanId","type":"uint256","internalType":"uint256"}],"stateMutability":"nonpayable"},{"type":"function","name":"convertToAssets","inputs":[{"name":"shares","type":"uint256","internalType":"uint256"}],"outputs":[{"name":"","type":"uint256","internalType":"uint256"}],"stateMutability":"view"},{"type":"function","name":"convertToShares","inputs":[{"name":"assets","type":"uint256","internalType":"uint256"}],"outputs":[{"name":"","type":"uint256","internalType":"uint256"}],"stateMutability":"view"},{"type":"function","name":"decimals","inputs":[],"outputs":[{"name":"","type":"uint8","internalType":"uint8"}],"stateMutability":"view"},{"type":"function","name":"deposit","inputs":[{"name":"assets","type":"uint256","internalType":"uint256"},{"name":"receiver","type":"address","internalType":"address"}],"outputs":[{"name":"","type":"uint256","internalType":"uint256"}],"stateMutability":"nonpayable"},{"type":"function","name":"getActiveLoan","inputs":[{"name":"borrower","type":"address","internalType":"address"}],"outputs":[{"name":"","type":"uint256","internalType":"uint256"}],"stateMutability":"view"},{"type":"function","name":"getLoan","inputs":[{"name":"loanId","type":"uint256","internalType":"uint256"}],"outputs":[{"name":"","type":"tuple","internalType":"struct ILendingPool.Loan","components":[{"name":"loanId","type":"uint256","internalType":"uint256"},{"name":"borrower","type":"address","internalType":"address"},{"name":"principal","type":"uint256","internalType":"uint256"},{"name":"totalRepayable","type":"uint256","internalType":"uint256"},{"name":"amountRepaid","type":"uint256","internalType":"uint256"},{"name":"interestRate","type":"uint256","internalType":"uint256"},{"name":"originatedAt","type":"uint48","internalType":"uint48"},{"name":"dueAt","type":"uint48","internalType":"uint48"},{"name":"lastRepaidAt","type":"uint48","internalType":"uint48"},{"name":"status","type":"uint8","internalType":"enum ILendingPool.LoanStatus"},{"name":"reputationScoreAtOrigination","type":"uint32","internalType":"uint32"}]}],"stateMutability":"view"},{"type":"function","name":"getLoanHistory","inputs":[{"name":"borrower","type":"address","internalType":"address"}],"outputs":[{"name":"","type":"uint256[]","internalType":"uint256[]"}],"stateMutability":"view"},{"type":"function","name":"getOutstandingBalance","inputs":[{"name":"loanId","type":"uint256","internalType":"uint256"}],"outputs":[{"name":"","type":"uint256","internalType":"uint256"}],"stateMutability":"view"},{"type":"function","name":"getTierForScore","inputs":[{"name":"score","type":"uint32","internalType":"uint32"}],"outputs":[{"name":"tier","type":"uint8","internalType":"uint8"},{"name":"params","type":"tuple","internalType":"struct ILendingPool.LoanTier","components":[{"name":"minScore","type":"uint32","internalType":"uint32"},{"name":"maxLoanAmount","type":"uint256","internalType":"uint256"},{"name":"interestRateBps","type":"uint256","internalType":"uint256"},{"name":"loanDuration","type":"uint48","internalType":"uint48"}]}],"stateMutability":"view"},{"type":"function","name":"loanManager","inputs":[],"outputs":[{"name":"","type":"address","internalType":"address"}],"stateMutability":"view"},{"type":"function","name":"markDefault","inputs":[{"name":"loanId","type":"uint256","internalType":"uint256"}],"outputs":[],"stateMutability":"nonpayable"},{"type":"function","name":"maxDeposit","inputs":[{"name":"","type":"address","internalType":"address"}],"outputs":[{"name":"","type":"uint256","internalType":"uint256"}],"stateMutability":"view"},{"type":"function","name":"maxMint","inputs":[{"name":"","type":"address","internalType":"address"}],"outputs":[{"name":"","type":"uint256","internalType":"uint256"}],"stateMutability":"view"},{"type":"function","name":"maxRedeem","inputs":[{"name":"owner","type":"address","internalType":"address"}],"outputs":[{"name":"","type":"uint256","internalType":"uint256"}],"stateMutability":"view"},{"type":"function","name":"maxWithdraw","inputs":[{"name":"owner","type":"address","internalType":"address"}],"outputs":[{"name":"","type":"uint256","internalType":"uint256"}],"stateMutability":"view"},{"type":"function","name":"mint","inputs":[{"name":"shares","type":"uint256","internalType":"uint256"},{"name":"receiver","type":"address","internalType":"address"}],"outputs":[{"name":"","type":"uint256","internalType":"uint256"}],"stateMutability":"nonpayable"},{"type":"function","name":"name","inputs":[],"outputs":[{"name":"","type":"string","internalType":"string"}],"stateMutability":"view"},{"type":"function","name":"owner","inputs":[],"outputs":[{"name":"","type":"address","internalType":"address"}],"stateMutability":"view"},{"type":"function","name":"paused","inputs":[],"outputs":[{"name":"","type":"bool","internalType":"bool"}],"stateMutability":"view"},{"type":"function","name":"previewDeposit","inputs":[{"name":"assets","type":"uint256","internalType":"uint256"}],"outputs":[{"name":"","type":"uint256","internalType":"uint256"}],"stateMutability":"view"},{"type":"function","name":"previewMint","inputs":[{"name":"shares","type":"uint256","internalType":"uint256"}],"outputs":[{"name":"","type":"uint256","internalType":"uint256"}],"stateMutability":"view"},{"type":"function","name":"previewRedeem","inputs":[{"name":"shares","type":"uint256","internalType":"uint256"}],"outputs":[{"name":"","type":"uint256","internalType":"uint256"}],"stateMutability":"view"},{"type":"function","name":"previewWithdraw","inputs":[{"name":"assets","type":"uint256","internalType":"uint256"}],"outputs":[{"name":"","type":"uint256","internalType":"uint256"}],"stateMutability":"view"},{"type":"function","name":"redeem","inputs":[{"name":"shares","type":"uint256","internalType":"uint256"},{"name":"receiver","type":"address","internalType":"address"},{"name":"owner","type":"address","internalType":"address"}],"outputs":[{"name":"","type":"uint256","internalType":"uint256"}],"stateMutability":"nonpayable"},{"type":"function","name":"renounceOwnership","inputs":[],"outputs":[],"stateMutability":"nonpayable"},{"type":"function","name":"repay","inputs":[{"name":"loanId","type":"uint256","internalType":"uint256"},{"name":"amount","type":"uint256","internalType":"uint256"}],"outputs":[],"stateMutability":"nonpayable"},{"type":"function","name":"setLoanManager","inputs":[{"name":"_loanManager","type":"address","internalType":"address"}],"outputs":[],"stateMutability":"nonpayable"},{"type":"function","name":"setPaused","inputs":[{"name":"pauseState","type":"bool","internalType":"bool"}],"outputs":[],"stateMutability":"nonpayable"},{"type":"function","name":"symbol","inputs":[],"outputs":[{"name":"","type":"string","internalType":"string"}],"stateMutability":"view"},{"type":"function","name":"totalAssets","inputs":[],"outputs":[{"name":"","type":"uint256","internalType":"uint256"}],"stateMutability":"view"},{"type":"function","name":"totalOutstanding","inputs":[],"outputs":[{"name":"","type":"uint256","internalType":"uint256"}],"stateMutability":"view"},{"type":"function","name":"totalSupply","inputs":[],"outputs":[{"name":"","type":"uint256","internalType":"uint256"}],"stateMutability":"view"},{"type":"function","name":"transfer","inputs":[{"name":"to","type":"address","internalType":"address"},{"name":"value","type":"uint256","internalType":"uint256"}],"outputs":[{"name":"","type":"bool","internalType":"bool"}],"stateMutability":"nonpayable"},{"type":"function","name":"transferFrom","inputs":[{"name":"from","type":"address","internalType":"address"},{"name":"to","type":"address","internalType":"address"},{"name":"value","type":"uint256","internalType":"uint256"}],"outputs":[{"name":"","type":"bool","internalType":"bool"}],"stateMutability":"nonpayable"},{"type":"function","name":"transferOwnership","inputs":[{"name":"newOwner","type":"address","internalType":"address"}],"outputs":[],"stateMutability":"nonpayable"},{"type":"function","name":"updateLoanTier","inputs":[{"name":"tier","type":"uint8","internalType":"uint8"},{"name":"params","type":"tuple","internalType":"struct ILendingPool.LoanTier","components":[{"name":"minScore","type":"uint32","internalType":"uint32"},{"name":"maxLoanAmount","type":"uint256","internalType":"uint256"},{"name":"interestRateBps","type":"uint256","internalType":"uint256"},{"name":"loanDuration","type":"uint48","internalType":"uint48"}]}],"outputs":[],"stateMutability":"nonpayable"},{"type":"function","name":"withdraw","inputs":[{"name":"assets","type":"uint256","internalType":"uint256"},{"name":"receiver","type":"address","internalType":"address"},{"name":"owner","type":"address","internalType":"address"}],"outputs":[{"name":"","type":"uint256","internalType":"uint256"}],"stateMutability":"nonpayable"},{"type":"event","name":"Approval","inputs":[{"name":"owner","type":"address","indexed":true,"internalType":"address"},{"name":"spender","type":"address","indexed":true,"internalType":"address"},{"name":"value","type":"uint256","indexed":false,"internalType":"uint256"}],"anonymous":false},{"type":"event","name":"Deposit","inputs":[{"name":"sender","type":"address","indexed":true,"internalType":"address"},{"name":"owner","type":"address","indexed":true,"internalType":"address"},{"name":"assets","type":"uint256","indexed":false,"internalType":"uint256"},{"name":"shares","type":"uint256","indexed":false,"internalType":"uint256"}],"anonymous":false},{"type":"event","name":"LoanDefaulted","inputs":[{"name":"loanId","type":"uint256","indexed":true,"internalType":"uint256"},{"name":"borrower","type":"address","indexed":true,"internalType":"address"},{"name":"outstandingBalance","type":"uint256","indexed":false,"internalType":"uint256"},{"name":"defaultedAt","type":"uint48","indexed":false,"internalType":"uint48"}],"anonymous":false},{"type":"event","name":"LoanFullyRepaid","inputs":[{"name":"loanId","type":"uint256","indexed":true,"internalType":"uint256"},{"name":"borrower","type":"address","indexed":true,"internalType":"address"},{"name":"repaidAt","type":"uint48","indexed":false,"internalType":"uint48"}],"anonymous":false},{"type":"event","name":"LoanOriginated","inputs":[{"name":"loanId","type":"uint256","indexed":true,"internalType":"uint256"},{"name":"borrower","type":"address","indexed":true,"internalType":"address"},{"name":"principal","type":"uint256","indexed":false,"internalType":"uint256"},{"name":"totalRepayable","type":"uint256","indexed":false,"internalType":"uint256"},{"name":"dueAt","type":"uint48","indexed":false,"internalType":"uint48"},{"name":"reputationScore","type":"uint32","indexed":false,"internalType":"uint32"}],"anonymous":false},{"type":"event","name":"LoanRepayment","inputs":[{"name":"loanId","type":"uint256","indexed":true,"internalType":"uint256"},{"name":"borrower","type":"address","indexed":true,"internalType":"address"},{"name":"amount","type":"uint256","indexed":false,"internalType":"uint256"},{"name":"remainingBalance","type":"uint256","indexed":false,"internalType":"uint256"},{"name":"paidAt","type":"uint48","indexed":false,"internalType":"uint48"}],"anonymous":false},{"type":"event","name":"LoanTierUpdated","inputs":[{"name":"tier","type":"uint8","indexed":true,"internalType":"uint8"},{"name":"minScore","type":"uint32","indexed":false,"internalType":"uint32"},{"name":"maxLoanAmount","type":"uint256","indexed":false,"internalType":"uint256"},{"name":"interestRateBps","type":"uint256","indexed":false,"internalType":"uint256"},{"name":"loanDuration","type":"uint48","indexed":false,"internalType":"uint48"}],"anonymous":false},{"type":"event","name":"OwnershipTransferred","inputs":[{"name":"previousOwner","type":"address","indexed":true,"internalType":"address"},{"name":"newOwner","type":"address","indexed":true,"internalType":"address"}],"anonymous":false},{"type":"event","name":"PoolPauseStateChanged","inputs":[{"name":"paused","type":"bool","indexed":false,"internalType":"bool"}],"anonymous":false},{"type":"event","name":"Transfer","inputs":[{"name":"from","type":"address","indexed":true,"internalType":"address"},{"name":"to","type":"address","indexed":true,"internalType":"address"},{"name":"value","type":"uint256","indexed":false,"internalType":"uint256"}],"anonymous":false},{"type":"event","name":"Withdraw","inputs":[{"name":"sender","type":"address","indexed":true,"internalType":"address"},{"name":"receiver","type":"address","indexed":true,"internalType":"address"},{"name":"owner","type":"address","indexed":true,"internalType":"address"},{"name":"assets","type":"uint256","indexed":false,"internalType":"uint256"},{"name":"shares","type":"uint256","indexed":false,"internalType":"uint256"}],"anonymous":false},{"type":"error","name":"ERC20InsufficientAllowance","inputs":[{"name":"spender","type":"address","internalType":"address"},{"name":"allowance","type":"uint256","internalType":"uint256"},{"name":"needed","type":"uint256","internalType":"uint256"}]},{"type":"error","name":"ERC20InsufficientBalance","inputs":[{"name":"sender","type":"address","internalType":"address"},{"name":"balance","type":"uint256","internalType":"uint256"},{"name":"needed","type":"uint256","internalType":"uint256"}]},{"type":"error","name":"ERC20InvalidApprover","inputs":[{"name":"approver","type":"address","internalType":"address"}]},{"type":"error","name":"ERC20InvalidReceiver","inputs":[{"name":"receiver","type":"address","internalType":"address"}]},{"type":"error","name":"ERC20InvalidSender","inputs":[{"name":"sender","type":"address","internalType":"address"}]},{"type":"error","name":"ERC20InvalidSpender","inputs":[{"name":"spender","type":"address","internalType":"address"}]},{"type":"error","name":"ERC4626ExceededMaxDeposit","inputs":[{"name":"receiver","type":"address","internalType":"address"},{"name":"assets","type":"uint256","internalType":"uint256"},{"name":"max","type":"uint256","internalType":"uint256"}]},{"type":"error","name":"ERC4626ExceededMaxMint","inputs":[{"name":"receiver","type":"address","internalType":"address"},{"name":"shares","type":"uint256","internalType":"uint256"},{"name":"max","type":"uint256","internalType":"uint256"}]},{"type":"error","name":"ERC4626ExceededMaxRedeem","inputs":[{"name":"owner","type":"address","internalType":"address"},{"name":"shares","type":"uint256","internalType":"uint256"},{"name":"max","type":"uint256","internalType":"uint256"}]},{"type":"error","name":"ERC4626ExceededMaxWithdraw","inputs":[{"name":"owner","type":"address","internalType":"address"},{"name":"assets","type":"uint256","internalType":"uint256"},{"name":"max","type":"uint256","internalType":"uint256"}]},{"type":"error","name":"LendingPool__ActiveLoanExists","inputs":[{"name":"borrower","type":"address","internalType":"address"},{"name":"activeLoanId","type":"uint256","internalType":"uint256"}]},{"type":"error","name":"LendingPool__AmountExceedsTierLimit","inputs":[{"name":"requested","type":"uint256","internalType":"uint256"},{"name":"maximum","type":"uint256","internalType":"uint256"}]},{"type":"error","name":"LendingPool__InsufficientPoolLiquidity","inputs":[{"name":"requested","type":"uint256","internalType":"uint256"},{"name":"available","type":"uint256","internalType":"uint256"}]},{"type":"error","name":"LendingPool__InsufficientReputation","inputs":[{"name":"score","type":"uint32","internalType":"uint32"},{"name":"required","type":"uint32","internalType":"uint32"}]},{"type":"error","name":"LendingPool__LoanNotActive","inputs":[{"name":"loanId","type":"uint256","internalType":"uint256"},{"name":"status","type":"uint8","internalType":"enum ILendingPool.LoanStatus"}]},{"type":"error","name":"LendingPool__LoanNotFound","inputs":[{"name":"loanId","type":"uint256","internalType":"uint256"}]},{"type":"error","name":"LendingPool__NotBorrower","inputs":[{"name":"caller","type":"address","internalType":"address"},{"name":"borrower","type":"address","internalType":"address"}]},{"type":"error","name":"LendingPool__Paused","inputs":[]},{"type":"error","name":"LendingPool__RepaymentExceedsBalance","inputs":[{"name":"amount","type":"uint256","internalType":"uint256"},{"name":"remaining","type":"uint256","internalType":"uint256"}]},{"type":"error","name":"LendingPool__WorkerIdentityNotActive","inputs":[{"name":"borrower","type":"address","internalType":"address"}]},{"type":"error","name":"LendingPool__ZeroAmount","inputs":[]},{"type":"error","name":"OwnableInvalidOwner","inputs":[{"name":"owner","type":"address","internalType":"address"}]},{"type":"error","name":"OwnableUnauthorizedAccount","inputs":[{"name":"account","type":"address","internalType":"address"}]},{"type":"error","name":"ReentrancyGuardReentrantCall","inputs":[]},{"type":"error","name":"SafeERC20FailedOperation","inputs":[{"name":"token","type":"address","internalType":"address"}]}],"bytecode":{"object":"0x61010060405234801562000011575f80fd5b5060405162002f6938038062002f698339810160408190526200003491620003b2565b8284604051806040016040528060118152602001702b32b930a33637bb902628102a37b5b2b760791b81525060405180604001604052806004815260200163076664c560e41b81525081600390816200008e9190620004b5565b5060046200009d8282620004b5565b5050505f80620000b3836200028f60201b60201c565b9150915081620000c5576012620000c7565b805b60ff1660a05250506001600160a01b0390811660805281166200010457604051631e4fbdf760e01b81525f60048201526024015b60405180910390fd5b6200010f8162000328565b5060017f9b779b17422d0df92223018b32b4d1fa46e071723d6817e2486d003becc55f00556001600160a01b03821615806200015257506001600160a01b038116155b15620001745760405163060a08fd60e31b81525f6004820152602401620000fb565b6001600160a01b0391821660c0521660e05250506001600755604080516080808201835260fa808352631dcd650060208085018290526104b08587018190526276a7006060968701819052600b805463ffffffff199081169096179055600c93909355600d55600e805465ffffffffffff199081169093179055855180850187526101f48082526377359400828401819052610384838a0181905262ed4e00938901849052600f805488169093179092556010556011556012805484169091179055855193840186526102ee80855264012a05f2009185018290526102589685018790526301e13380949095018490526013805490931690941790915560149290925560159290925560168054909116909117905562000581565b5f80806200029c60405190565b6040805160048152602481019091526020810180516001600160e01b0390811663313ce56760e01b179091529192505f918291620002de918891906200037916565b509092509050620002ee83604052565b818015620002fd575060203d10155b80156200030b575060ff8111155b62000318575f806200031c565b6001815b94509450505050915091565b600580546001600160a01b038381166001600160a01b0319831681179093556040519116919082907f8be0079c531659141344cd1fd0a4f28419497f9722a3daafe3b4186f6b6457e0905f90a35050565b5f805f60405f855160208701885afa92505f51915060205190509250925092565b6001600160a01b0381168114620003af575f80fd5b50565b5f805f8060808587031215620003c6575f80fd5b8451620003d3816200039a565b6020860151909450620003e6816200039a565b6040860151909350620003f9816200039a565b60608601519092506200040c816200039a565b939692955090935050565b634e487b7160e01b5f52604160045260245ffd5b600181811c908216806200044057607f821691505b6020821081036200045f57634e487b7160e01b5f52602260045260245ffd5b50919050565b601f821115620004b057805f5260205f20601f840160051c810160208510156200048c5750805b601f840160051c820191505b81811015620004ad575f815560010162000498565b50505b505050565b81516001600160401b03811115620004d157620004d162000417565b620004e981620004e284546200042b565b8462000465565b602080601f8311600181146200051f575f8415620005075750858301515b5f19600386901b1c1916600185901b17855562000579565b5f85815260208120601f198616915b828110156200054f578886015182559484019460019091019084016200052e565b50858210156200056d57878501515f19600388901b60f8161c191681555b505060018460011b0185555b505050505050565b60805160a05160c05160e05161296e620005fb5f395f8181610399015281816115c2015261191501525f818161065801528181610dba0152610eec01525f61084801525f81816103480152818161067d01528181610a470152818161123f0152818161145701528181611fef0152612083015261296e5ff3fe608060405234801561000f575f80fd5b5060043610610276575f3560e01c8063888f057f11610156578063c5ebeaec116100ca578063dd62ed3e11610084578063dd62ed3e1461059c578063dd939439146105d4578063e1d927c81461062d578063ef8b30f714610550578063f2fde38b14610640578063f52174a414610653575f80fd5b8063c5ebeaec1461053d578063c63d75b614610380578063c6e6f59214610550578063ce96cb7714610563578063d8aed14514610576578063d905777e14610589575f80fd5b8063a5896de81161011b578063a5896de8146104cb578063a9059cbb146104de578063b3ccbcfe146104f1578063b3d7f6b914610504578063b460af9414610517578063ba0876521461052a575f80fd5b8063888f057f1461046c5780638da5cb5b1461048c57806394bf804d1461049d57806395d89b41146104b05780639b8fec30146104b8575f80fd5b8063402d267d116101ed5780635c975abb116101b25780635c975abb146103ee5780636010ba64146103f95780636e553f651461042157806370a0823114610434578063715018a61461045c5780637437535914610464575f80fd5b8063402d267d14610380578063454fbc9f146103945780634cdad506146102aa578063504006ca146103bb5780635772ae70146103db575f80fd5b806316078d041161023e57806316078d04146102f357806316c38b3c146102fc57806318160ddd1461031157806323b872dd14610319578063313ce5671461032c57806338d52e0f14610346575f80fd5b806301e1d1141461027a57806306fdde031461029557806307a2d13a146102aa578063095ea7b3146102bd5780630a28a477146102e0575b5f80fd5b61028261067a565b6040519081526020015b60405180910390f35b61029d610709565b60405161028c91906122b0565b6102826102b83660046122fc565b610799565b6102d06102cb366004612329565b6107aa565b604051901515815260200161028c565b6102826102ee3660046122fc565b6107c1565b61028260175481565b61030f61030a36600461235e565b6107cd565b005b600254610282565b6102d0610327366004612379565b61081c565b610334610841565b60405160ff909116815260200161028c565b7f00000000000000000000000000000000000000000000000000000000000000005b6040516001600160a01b03909116815260200161028c565b61028261038e3660046123b2565b505f1990565b6103687f000000000000000000000000000000000000000000000000000000000000000081565b6103ce6103c93660046122fc565b61086c565b60405161028c91906123ff565b61030f6103e93660046123b2565b6109a9565b60185460ff166102d0565b6102826104073660046123b2565b6001600160a01b03165f9081526009602052604090205490565b61028261042f3660046124bd565b6109fa565b6102826104423660046123b2565b6001600160a01b03165f9081526020819052604090205490565b61030f610a2b565b610282610a3e565b61047f61047a3660046123b2565b610adb565b60405161028c91906124e7565b6005546001600160a01b0316610368565b6102826104ab3660046124bd565b610b44565b61029d610b5f565b6102826104c63660046122fc565b610b6e565b61030f6104d936600461252a565b610be2565b6102d06104ec366004612329565b610cd5565b600654610368906001600160a01b031681565b6102826105123660046122fc565b610ce2565b61028261052536600461256d565b610cee565b61028261053836600461256d565b610d44565b61028261054b3660046122fc565b610d91565b61028261055e3660046122fc565b6112f5565b6102826105713660046123b2565b611300565b61030f6105843660046125a6565b61130d565b6102826105973660046123b2565b611683565b6102826105aa3660046125c6565b6001600160a01b039182165f90815260016020908152604080832093909416825291909152205490565b6105e76105e23660046125ff565b6116a0565b6040805160ff9093168352815163ffffffff1660208085019190915282015183820152810151606080840191909152015165ffffffffffff16608082015260a00161028c565b61030f61063b3660046122fc565b6117a4565b61030f61064e3660046123b2565b6119d8565b6103687f000000000000000000000000000000000000000000000000000000000000000081565b5f7f00000000000000000000000000000000000000000000000000000000000000006040516370a0823160e01b81523060048201526001600160a01b0391909116906370a0823190602401602060405180830381865afa1580156106e0573d5f803e3d5ffd5b505050506040513d601f19601f82011682018060405250810190610704919061261a565b905090565b60606003805461071890612631565b80601f016020809104026020016040519081016040528092919081815260200182805461074490612631565b801561078f5780601f106107665761010080835404028352916020019161078f565b820191905f5260205f20905b81548152906001019060200180831161077257829003601f168201915b5050505050905090565b5f6107a4825f611a12565b92915050565b5f336107b7818585611a4a565b5060019392505050565b5f6107a4826001611a5c565b6107d5611a8b565b6018805460ff19168215159081179091556040519081527f14f5e3deb5165e532b8eedd766199422052b596bacefa3561e59267d744ece299060200160405180910390a150565b5f33610829858285611ab8565b610834858585611b21565b60019150505b9392505050565b5f610704817f000000000000000000000000000000000000000000000000000000000000000061267d565b60408051610160810182525f80825260208201819052918101829052606081018290526080810182905260a0810182905260c0810182905260e08101829052610100810182905261012081018290526101408101919091525f828152600860209081526040918290208251610160810184528154815260018201546001600160a01b031692810192909252600281015492820192909252600382015460608201526004808301546080830152600583015460a0830152600683015465ffffffffffff80821660c0850152600160301b8204811660e0850152600160601b820416610100840152919291610120840191600160901b90910460ff1690811115610976576109766123cb565b6004811115610987576109876123cb565b815260069190910154600160981b900463ffffffff1660209091015292915050565b6109b1611a8b565b6001600160a01b0381166109d8576040516302da170760e11b815260040160405180910390fd5b600680546001600160a01b0319166001600160a01b0392909216919091179055565b5f5f19610a0b565b60405180910390fd5b5f610a15856112f5565b9050610a2333858784611b7e565b949350505050565b610a33611a8b565b610a3c5f611bee565b565b5f601754610a697f000000000000000000000000000000000000000000000000000000000000000090565b6040516370a0823160e01b81523060048201526001600160a01b0391909116906370a0823190602401602060405180830381865afa158015610aad573d5f803e3d5ffd5b505050506040513d601f19601f82011682018060405250810190610ad1919061261a565b61070491906126b7565b6001600160a01b0381165f908152600a6020908152604091829020805483518184028101840190945280845260609392830182828015610b3857602002820191905f5260205f20905b815481526020019060010190808311610b24575b50505050509050919050565b5f5f195f610b5185610ce2565b9050610a2333858388611b7e565b60606004805461071890612631565b5f81815260086020526040812080548203610b9f5760405163060a08fd60e31b815260048101849052602401610a02565b60016006820154600160901b900460ff166004811115610bc157610bc16123cb565b14610bce57505f92915050565b8060040154816003015461083a91906126b7565b610bea611a8b565b60038260ff1610610c2c5760405162461bcd60e51b815260206004820152600c60248201526b34b73b30b634b2103a34b2b960a11b6044820152606401610a02565b80600b8360ff1660038110610c4357610c436126ca565b60040201610c5182826126f1565b505060ff82167f23696cad244f9d943a5427b5f8bdbca80e7646bddd92adc764e4ca23efef6348610c8560208401846125ff565b60208401356040850135610c9f6080870160608801612753565b6040805163ffffffff909516855260208501939093529183015265ffffffffffff16606082015260800160405180910390a25050565b5f336107b7818585611b21565b5f6107a4826001611a12565b5f80610cf983611300565b905080851115610d2257828582604051633fa733bb60e21b8152600401610a0293929190612696565b5f610d2c866107c1565b9050610d3b3386868985611c3f565b95945050505050565b5f80610d4f83611683565b905080851115610d7857828582604051632e52afbb60e21b8152600401610a0293929190612696565b5f610d8286610799565b9050610d3b338686848a611c3f565b5f610d9a611cde565b610da2611d05565b604051639f8a13d760e01b81523360048201819052907f00000000000000000000000000000000000000000000000000000000000000006001600160a01b031690639f8a13d790602401602060405180830381865afa158015610e07573d5f803e3d5ffd5b505050506040513d601f19601f82011682018060405250810190610e2b919061276e565b610e535760405163775574db60e11b81526001600160a01b0382166004820152602401610a02565b6001600160a01b0381165f9081526009602052604090205415610eab576001600160a01b0381165f81815260096020526040908190205490516340468c1b60e01b815260048101929092526024820152604401610a02565b825f03610ecb576040516302da170760e11b815260040160405180910390fd5b604051631d699f5760e21b81526001600160a01b0382811660048301525f917f0000000000000000000000000000000000000000000000000000000000000000909116906375a67d5c90602401602060405180830381865afa158015610f33573d5f803e3d5ffd5b505050506040513d601f19601f82011682018060405250810190610f579190612789565b90505f80610f64836116a0565b915091508060200151861115610f9d576020810151604051631a6c85d960e11b8152610a02918891600401918252602082015260400190565b5f610fa6610a3e565b905080871115610fd3576040516353342b6f60e01b81526004810188905260248101829052604401610a02565b5f64496cebb800836060015165ffffffffffff1684604001518a610ff791906127a4565b61100191906127a4565b61100b91906127cf565b90505f611018828a6127e2565b6007805460018101909155606086015190995090915042905f906110449065ffffffffffff16836127e2565b90506040518061016001604052808b81526020018a6001600160a01b031681526020018c81526020018481526020015f8152602001876040015181526020018365ffffffffffff1681526020018265ffffffffffff1681526020015f65ffffffffffff168152602001600160048111156110c0576110c06123cb565b815263ffffffff8a166020918201525f8c81526008825260409081902083518155918301516001830180546001600160a01b039092166001600160a01b0319909216919091179055820151600282015560608201516003820155608082015160048083019190915560a0830151600583015560c083015160068301805460e086015161010087015165ffffffffffff908116600160601b0265ffffffffffff60601b19928216600160301b026bffffffffffffffffffffffff199094169190951617919091179081168317825561012086015193919260ff60901b191666ffffffffffffff60601b199091161790600160901b9084908111156111c5576111c56123cb565b021790555061014091909101516006909101805463ffffffff909216600160981b0263ffffffff60981b199092169190911790556001600160a01b0389165f9081526009602090815260408083208d9055600a8252822080546001810182559083529120018a9055601780548c019055611271898c6112617f000000000000000000000000000000000000000000000000000000000000000090565b6001600160a01b03169190611d20565b604080518c81526020810185905265ffffffffffff83168183015263ffffffff8a16606082015290516001600160a01b038b16918c917ff8f5d51069dd2dcc736250a47d01e5ba1df6b3cbef281ff15953a2e6f8f6da579181900360800190a35050505050505050506112f060015f8051602061291983398151915255565b919050565b5f6107a4825f611a5c565b5f6107a46102b883611683565b611315611cde565b61131d611d05565b805f0361133d576040516302da170760e11b815260040160405180910390fd5b5f828152600860205260408120805490910361136f5760405163060a08fd60e31b815260048101849052602401610a02565b60016006820154600160901b900460ff166004811115611391576113916123cb565b146113c457828160060160129054906101000a900460ff1660405163b1f5c58b60e01b8152600401610a029291906127f5565b60018101546001600160a01b0316331461140857600181015460405163165ecc8d60e01b81523360048201526001600160a01b039091166024820152604401610a02565b5f8160040154826003015461141d91906126b7565b90508083111561144a5760405163133967f160e01b81526004810184905260248101829052604401610a02565b61147f6001600160a01b037f000000000000000000000000000000000000000000000000000000000000000016333086611d55565b60048201805484019081905560068301805465ffffffffffff60601b1916600160601b4265ffffffffffff160217905560038301545f916114bf916126b7565b60408051868152602081018390524265ffffffffffff16818301529051919250339187917f12bf7141ca52f921cb7d97e574e939595485398310a087ed66bd9c4729333938919081900360600190a382600301548360040154106116665760068301805460ff60901b1916600160911b17905560018301546001600160a01b03165f9081526009602052604081205560028301546017541061156b576002830154601780549190910390555b6006830154600160301b900465ffffffffffff1642105f8161158e57603c611591565b60465b6001860154604051631091f60b60e21b81526001600160a01b039182166004820152600383900b60248201529192507f00000000000000000000000000000000000000000000000000000000000000001690634247d82c906044015f604051808303815f87803b158015611603575f80fd5b505af1925050508015611614575060015b50600185015460405165ffffffffffff421681526001600160a01b039091169088907f4121f97ec617376d4745047ab5379ae0eefdff6a5df32758777c1f12c66988b19060200160405180910390a350505b50505061167f60015f8051602061291983398151915255565b5050565b6001600160a01b0381165f908152602081905260408120546107a4565b604080516080810182525f808252602082018190529181018290526060810182905260025b60038160ff16101561177657600b8160ff16600381106116e7576116e76126ca565b600402015463ffffffff908116908516106117655780600b8260ff1660038110611713576117136126ca565b6040805160808101825260049290920292909201805463ffffffff1682526001810154602083015260028101549282019290925260039091015465ffffffffffff166060820152909590945092505050565b60ff811615611776575f19016116c5565b50600b546040516334f7feb560e11b815263ffffffff80861660048301529091166024820152604401610a02565b6117ac611d8b565b6117b4611d05565b5f81815260086020526040812080549091036117e65760405163060a08fd60e31b815260048101839052602401610a02565b60016006820154600160901b900460ff166004811115611808576118086123cb565b1461183b57818160060160129054906101000a900460ff1660405163b1f5c58b60e01b8152600401610a029291906127f5565b6006810154600160301b900465ffffffffffff16421161188357818160060160129054906101000a900460ff1660405163b1f5c58b60e01b8152600401610a029291906127f5565b5f8160040154826003015461189891906126b7565b60068301805460ff60901b1916600360901b17905560018301546001600160a01b03165f908152600960205260408120556002830154601754919250116118e9576002820154601780549190910390555b6001820154604051631091f60b60e21b81526001600160a01b03918216600482015260951960248201527f000000000000000000000000000000000000000000000000000000000000000090911690634247d82c906044015f604051808303815f87803b158015611958575f80fd5b505af1925050508015611969575060015b5060018201546040805183815265ffffffffffff421660208201526001600160a01b039092169185917f1de1aa1262e42cc3ea355fb3bba2c707828699eec93a3fe2d3c0dba9104b9f93910160405180910390a350506119d560015f8051602061291983398151915255565b50565b6119e0611a8b565b6001600160a01b038116611a0957604051631e4fbdf760e01b81525f6004820152602401610a02565b6119d581611bee565b5f61083a611a1e61067a565b611a299060016127e2565b611a345f600a6128e9565b600254611a4191906127e2565b85919085611dd1565b611a578383836001611e13565b505050565b5f61083a611a6b82600a6128e9565b600254611a7891906127e2565b611a8061067a565b611a419060016127e2565b6005546001600160a01b03163314610a3c5760405163118cdaa760e01b8152336004820152602401610a02565b6001600160a01b038381165f908152600160209081526040808320938616835292905220545f19811015611b1b5781811015611b0d57828183604051637dc7a0d960e11b8152600401610a0293929190612696565b611b1b84848484035f611e13565b50505050565b6001600160a01b038316611b4a57604051634b637e8f60e11b81525f6004820152602401610a02565b6001600160a01b038216611b735760405163ec442f0560e01b81525f6004820152602401610a02565b611a57838383611ed7565b611b888483611fea565b611b928382612016565b826001600160a01b0316846001600160a01b03167fdcbc1c05240f31ff3ad067ef1ee35ce4997762752e3a095284754544f4c709d78484604051611be0929190918252602082015260400190565b60405180910390a350505050565b600580546001600160a01b038381166001600160a01b0319831681179093556040519116919082907f8be0079c531659141344cd1fd0a4f28419497f9722a3daafe3b4186f6b6457e0905f90a35050565b826001600160a01b0316856001600160a01b031614611c6357611c63838683611ab8565b611c6d838261204a565b611c77848361207e565b826001600160a01b0316846001600160a01b0316866001600160a01b03167ffbde797d201c681b91056529119e0b02407c7bb96a4a2c75c01fc9667232c8db8585604051611ccf929190918252602082015260400190565b60405180910390a45050505050565b60185460ff1615610a3c576040516001623be70560e21b0319815260040160405180910390fd5b611d0d6120a9565b60025f8051602061291983398151915255565b611d2d83838360016120d8565b611a5757604051635274afe760e01b81526001600160a01b0384166004820152602401610a02565b611d6384848484600161213a565b611b1b57604051635274afe760e01b81526001600160a01b0385166004820152602401610a02565b6006546001600160a01b03163314801590611db157506005546001600160a01b03163314155b15610a3c5760405163060a08fd60e31b81525f6004820152602401610a02565b5f611dfe611dde836121a7565b8015611df957505f8480611df457611df46127bb565b868809115b151590565b611e098686866121d3565b610d3b91906127e2565b6001600160a01b038416611e3c5760405163e602df0560e01b81525f6004820152602401610a02565b6001600160a01b038316611e6557604051634a1406b160e11b81525f6004820152602401610a02565b6001600160a01b038085165f9081526001602090815260408083209387168352929052208290558015611b1b57826001600160a01b0316846001600160a01b03167f8c5be1e5ebec7d5bd14f71427d1e84f3dd0314c0f7b2291e5b200ac8c7c3b92584604051611be091815260200190565b6001600160a01b038316611f01578060025f828254611ef691906127e2565b90915550611f5e9050565b6001600160a01b0383165f9081526020819052604090205481811015611f405783818360405163391434e360e21b8152600401610a0293929190612696565b6001600160a01b0384165f9081526020819052604090209082900390555b6001600160a01b038216611f7a57600280548290039055611f98565b6001600160a01b0382165f9081526020819052604090208054820190555b816001600160a01b0316836001600160a01b03167fddf252ad1be2c89b69c2b068fc378daa952ba7f163c4a11628f55a4df523b3ef83604051611fdd91815260200190565b60405180910390a3505050565b61167f7f0000000000000000000000000000000000000000000000000000000000000000833084611d55565b6001600160a01b03821661203f5760405163ec442f0560e01b81525f6004820152602401610a02565b61167f5f8383611ed7565b6001600160a01b03821661207357604051634b637e8f60e11b81525f6004820152602401610a02565b61167f825f83611ed7565b61167f7f00000000000000000000000000000000000000000000000000000000000000008383611d20565b5f8051602061291983398151915254600203610a3c57604051633ee5aeb560e01b815260040160405180910390fd5b60405163a9059cbb60e01b5f8181526001600160a01b038616600452602485905291602083604481808b5af1925060015f5114831661212e578383151615612122573d5f823e3d81fd5b5f873b113d1516831692505b60405250949350505050565b6040516323b872dd60e01b5f8181526001600160a01b038781166004528616602452604485905291602083606481808c5af1925060015f5114831661219657838315161561218a573d5f823e3d81fd5b5f883b113d1516831692505b604052505f60605295945050505050565b5f60028260038111156121bc576121bc6123cb565b6121c691906128f7565b60ff166001149050919050565b5f805f6121e08686612283565b91509150815f03612204578381816121fa576121fa6127bb565b049250505061083a565b81841161221b5761221b600385150260111861229f565b5f848688095f868103871696879004966002600389028118808a02820302808a02820302808a02820302808a02820302808a02820302808a02909103029181900381900460010185841190960395909502919093039390930492909217029150509392505050565b5f805f1983850993909202808410938190039390930393915050565b634e487b715f52806020526024601cfd5b5f602080835283518060208501525f5b818110156122dc578581018301518582016040015282016122c0565b505f604082860101526040601f19601f8301168501019250505092915050565b5f6020828403121561230c575f80fd5b5035919050565b80356001600160a01b03811681146112f0575f80fd5b5f806040838503121561233a575f80fd5b61234383612313565b946020939093013593505050565b80151581146119d5575f80fd5b5f6020828403121561236e575f80fd5b813561083a81612351565b5f805f6060848603121561238b575f80fd5b61239484612313565b92506123a260208501612313565b9150604084013590509250925092565b5f602082840312156123c2575f80fd5b61083a82612313565b634e487b7160e01b5f52602160045260245ffd5b600581106123fb57634e487b7160e01b5f52602160045260245ffd5b9052565b81518152602080830151610160830191612423908401826001600160a01b03169052565b5060408301516040830152606083015160608301526080830151608083015260a083015160a083015260c083015161246560c084018265ffffffffffff169052565b5060e083015161247f60e084018265ffffffffffff169052565b506101008381015165ffffffffffff1690830152610120808401516124a6828501826123df565b50506101409283015163ffffffff16919092015290565b5f80604083850312156124ce575f80fd5b823591506124de60208401612313565b90509250929050565b602080825282518282018190525f9190848201906040850190845b8181101561251e57835183529284019291840191600101612502565b50909695505050505050565b5f8082840360a081121561253c575f80fd5b833560ff8116811461254c575f80fd5b92506080601f198201121561255f575f80fd5b506020830190509250929050565b5f805f6060848603121561257f575f80fd5b8335925061258f60208501612313565b915061259d60408501612313565b90509250925092565b5f80604083850312156125b7575f80fd5b50508035926020909101359150565b5f80604083850312156125d7575f80fd5b6125e083612313565b91506124de60208401612313565b63ffffffff811681146119d5575f80fd5b5f6020828403121561260f575f80fd5b813561083a816125ee565b5f6020828403121561262a575f80fd5b5051919050565b600181811c9082168061264557607f821691505b60208210810361266357634e487b7160e01b5f52602260045260245ffd5b50919050565b634e487b7160e01b5f52601160045260245ffd5b60ff81811683821601908111156107a4576107a4612669565b6001600160a01b039390931683526020830191909152604082015260600190565b818103818111156107a4576107a4612669565b634e487b7160e01b5f52603260045260245ffd5b65ffffffffffff811681146119d5575f80fd5b81356126fc816125ee565b63ffffffff811663ffffffff19835416178255506020820135600182015560408201356002820155600381016060830135612736816126de565b815465ffffffffffff191665ffffffffffff919091161790555050565b5f60208284031215612763575f80fd5b813561083a816126de565b5f6020828403121561277e575f80fd5b815161083a81612351565b5f60208284031215612799575f80fd5b815161083a816125ee565b80820281158282048414176107a4576107a4612669565b634e487b7160e01b5f52601260045260245ffd5b5f826127dd576127dd6127bb565b500490565b808201808211156107a4576107a4612669565b8281526040810161083a60208301846123df565b600181815b8085111561284357815f190482111561282957612829612669565b8085161561283657918102915b93841c939080029061280e565b509250929050565b5f82612859575060016107a4565b8161286557505f6107a4565b816001811461287b5760028114612885576128a1565b60019150506107a4565b60ff84111561289657612896612669565b50506001821b6107a4565b5060208310610133831016604e8410600b84101617156128c4575081810a6107a4565b6128ce8383612809565b805f19048211156128e1576128e1612669565b029392505050565b5f61083a60ff84168361284b565b5f60ff831680612909576129096127bb565b8060ff8416069150509291505056fe9b779b17422d0df92223018b32b4d1fa46e071723d6817e2486d003becc55f00a26469706673582212205fb168c61d8831bf36714d88d1ff6609a32ad41c6273c01b5d9e3a2040b6404b64736f6c63430008180033","linkReferences":{}},"methodIdentifiers":{"REPUTATION_SCORE()":"454fbc9f","WORKER_IDENTITY()":"f52174a4","allowance(address,address)":"dd62ed3e","approve(address,uint256)":"095ea7b3","asset()":"38d52e0f","availableLiquidity()":"74375359","balanceOf(address)":"70a08231","borrow(uint256)":"c5ebeaec","convertToAssets(uint256)":"07a2d13a","convertToShares(uint256)":"c6e6f592","decimals()":"313ce567","deposit(uint256,address)":"6e553f65","getActiveLoan(address)":"6010ba64","getLoan(uint256)":"504006ca","getLoanHistory(address)":"888f057f","getOutstandingBalance(uint256)":"9b8fec30","getTierForScore(uint32)":"dd939439","loanManager()":"b3ccbcfe","markDefault(uint256)":"e1d927c8","maxDeposit(address)":"402d267d","maxMint(address)":"c63d75b6","maxRedeem(address)":"d905777e","maxWithdraw(address)":"ce96cb77","mint(uint256,address)":"94bf804d","name()":"06fdde03","owner()":"8da5cb5b","paused()":"5c975abb","previewDeposit(uint256)":"ef8b30f7","previewMint(uint256)":"b3d7f6b9","previewRedeem(uint256)":"4cdad506","previewWithdraw(uint256)":"0a28a477","redeem(uint256,address,address)":"ba087652","renounceOwnership()":"715018a6","repay(uint256,uint256)":"d8aed145","setLoanManager(address)":"5772ae70","setPaused(bool)":"16c38b3c","symbol()":"95d89b41","totalAssets()":"01e1d114","totalOutstanding()":"16078d04","totalSupply()":"18160ddd","transfer(address,uint256)":"a9059cbb","transferFrom(address,address,uint256)":"23b872dd","transferOwnership(address)":"f2fde38b","updateLoanTier(uint8,(uint32,uint256,uint256,uint48))":"a5896de8","withdraw(uint256,address,address)":"b460af94"},"id":61}