{"abi":[{"type":"constructor","inputs":[{"name":"initialOwner","type":"address","internalType":"address"},{"name":"_lendingPool","type":"address","internalType":"address"},{"name":"_reputationScore","type":"address","internalType":"address"},{"name":"_workerIdentity","type":"address","internalType":"address"}],"stateMutability":"nonpayable"},{"type":"function","name":"LENDING_POOL","inputs":[],"outputs":[{"name":"","type":"address","internalType":"contract LendingPool"}],"stateMutability":"view"},{"type":"function","name":"REPUTATION_SCORE","inputs":[],"outputs":[{"name":"","type":"address","internalType":"contract ReputationScore"}],"stateMutability":"view"},{"type":"function","name":"WORKER_IDENTITY","inputs":[],"outputs":[{"name":"","type":"address","internalType":"contract IWorkerIdentity"}],"stateMutability":"view"},{"type":"function","name":"defaultQueueLength","inputs":[],"outputs":[{"name":"","type":"uint256","internalType":"uint256"}],"stateMutability":"view"},{"type":"function","name":"getDefaultQueue","inputs":[{"name":"offset","type":"uint256","internalType":"uint256"},{"name":"limit","type":"uint256","internalType":"uint256"}],"outputs":[{"name":"","type":"uint256[]","internalType":"uint256[]"}],"stateMutability":"view"},{"type":"function","name":"gracePeriod","inputs":[],"outputs":[{"name":"","type":"uint256","internalType":"uint256"}],"stateMutability":"view"},{"type":"function","name":"isOverdue","inputs":[{"name":"loanId","type":"uint256","internalType":"uint256"}],"outputs":[{"name":"","type":"bool","internalType":"bool"}],"stateMutability":"view"},{"type":"function","name":"isQueuedForDefault","inputs":[{"name":"","type":"uint256","internalType":"uint256"}],"outputs":[{"name":"","type":"bool","internalType":"bool"}],"stateMutability":"view"},{"type":"function","name":"maxBatchSize","inputs":[],"outputs":[{"name":"","type":"uint256","internalType":"uint256"}],"stateMutability":"view"},{"type":"function","name":"owner","inputs":[],"outputs":[{"name":"","type":"address","internalType":"address"}],"stateMutability":"view"},{"type":"function","name":"processOverdueLoans","inputs":[],"outputs":[],"stateMutability":"nonpayable"},{"type":"function","name":"queueForDefault","inputs":[{"name":"loanId","type":"uint256","internalType":"uint256"}],"outputs":[],"stateMutability":"nonpayable"},{"type":"function","name":"removeFromQueue","inputs":[{"name":"loanId","type":"uint256","internalType":"uint256"},{"name":"reason","type":"string","internalType":"string"}],"outputs":[],"stateMutability":"nonpayable"},{"type":"function","name":"renounceOwnership","inputs":[],"outputs":[],"stateMutability":"nonpayable"},{"type":"function","name":"setGracePeriod","inputs":[{"name":"newGracePeriod","type":"uint256","internalType":"uint256"}],"outputs":[],"stateMutability":"nonpayable"},{"type":"function","name":"setMaxBatchSize","inputs":[{"name":"newSize","type":"uint256","internalType":"uint256"}],"outputs":[],"stateMutability":"nonpayable"},{"type":"function","name":"transferOwnership","inputs":[{"name":"newOwner","type":"address","internalType":"address"}],"outputs":[],"stateMutability":"nonpayable"},{"type":"event","name":"BatchDefaultProcessed","inputs":[{"name":"loansProcessed","type":"uint256","indexed":false,"internalType":"uint256"},{"name":"loansDefaulted","type":"uint256","indexed":false,"internalType":"uint256"},{"name":"loansSkipped","type":"uint256","indexed":false,"internalType":"uint256"},{"name":"processedAt","type":"uint48","indexed":false,"internalType":"uint48"}],"anonymous":false},{"type":"event","name":"GracePeriodUpdated","inputs":[{"name":"oldPeriod","type":"uint256","indexed":false,"internalType":"uint256"},{"name":"newPeriod","type":"uint256","indexed":false,"internalType":"uint256"}],"anonymous":false},{"type":"event","name":"LoanQueuedForDefault","inputs":[{"name":"loanId","type":"uint256","indexed":true,"internalType":"uint256"},{"name":"borrower","type":"address","indexed":true,"internalType":"address"},{"name":"dueAt","type":"uint48","indexed":false,"internalType":"uint48"},{"name":"queuedAt","type":"uint48","indexed":false,"internalType":"uint48"}],"anonymous":false},{"type":"event","name":"LoanRemovedFromQueue","inputs":[{"name":"loanId","type":"uint256","indexed":true,"internalType":"uint256"},{"name":"reason","type":"string","indexed":false,"internalType":"string"}],"anonymous":false},{"type":"event","name":"MaxBatchSizeUpdated","inputs":[{"name":"oldSize","type":"uint256","indexed":false,"internalType":"uint256"},{"name":"newSize","type":"uint256","indexed":false,"internalType":"uint256"}],"anonymous":false},{"type":"event","name":"OwnershipTransferred","inputs":[{"name":"previousOwner","type":"address","indexed":true,"internalType":"address"},{"name":"newOwner","type":"address","indexed":true,"internalType":"address"}],"anonymous":false},{"type":"error","name":"LoanManager__EmptyQueue","inputs":[]},{"type":"error","name":"LoanManager__InvalidBatchSize","inputs":[]},{"type":"error","name":"LoanManager__LoanAlreadyQueued","inputs":[{"name":"loanId","type":"uint256","internalType":"uint256"}]},{"type":"error","name":"LoanManager__LoanNotOverdue","inputs":[{"name":"loanId","type":"uint256","internalType":"uint256"},{"name":"dueAt","type":"uint48","internalType":"uint48"}]},{"type":"error","name":"LoanManager__ZeroAddress","inputs":[]},{"type":"error","name":"OwnableInvalidOwner","inputs":[{"name":"owner","type":"address","internalType":"address"}]},{"type":"error","name":"OwnableUnauthorizedAccount","inputs":[{"name":"account","type":"address","internalType":"address"}]},{"type":"error","name":"ReentrancyGuardReentrantCall","inputs":[]}],"bytecode":{"object":"0x60e060405234801562000010575f80fd5b50604051620011ba380380620011ba833981016040819052620000339162000178565b836001600160a01b0381166200006257604051631e4fbdf760e01b81525f600482015260240160405180910390fd5b6200006d816200010d565b5060017f9b779b17422d0df92223018b32b4d1fa46e071723d6817e2486d003becc55f00556001600160a01b0383161580620000b057506001600160a01b038216155b80620000c357506001600160a01b038116155b15620000e257604051630e71537560e01b815260040160405180910390fd5b6001600160a01b0392831660805290821660a0521660c052506203f4806001556032600255620001d2565b5f80546001600160a01b038381166001600160a01b0319831681178455604051919092169283917f8be0079c531659141344cd1fd0a4f28419497f9722a3daafe3b4186f6b6457e09190a35050565b80516001600160a01b038116811462000173575f80fd5b919050565b5f805f80608085870312156200018c575f80fd5b62000197856200015c565b9350620001a7602086016200015c565b9250620001b7604086016200015c565b9150620001c7606086016200015c565b905092959194509250565b60805160a05160c051610fa1620002195f395f61028801525f61015b01525f8181610228015281816102ca015281816105ec0152818161070a01526109820152610fa15ff3fe608060405234801561000f575f80fd5b5060043610610106575f3560e01c80637a940be71161009e578063b4dcfc771161006e578063b4dcfc7714610223578063d22a0d0f1461024a578063f2f659601461025d578063f2fde38b14610270578063f52174a414610283575f80fd5b80637a940be7146101d75780638da5cb5b146101ea5780639c405586146101fa578063a06db7dc1461021a575f80fd5b8063454fbc9f116100d9578063454fbc9f146101565780635abb732514610195578063715018a61461019d578063769ad676146101a5575f80fd5b80631dd1e2671461010a5780632913daa01461011f5780632b26a6bf1461013b5780633bea1cd11461014e575b5f80fd5b61011d610118366004610c44565b6102aa565b005b61012860025481565b6040519081526020015b60405180910390f35b61011d610149366004610c44565b6104e9565b61011d610552565b61017d7f000000000000000000000000000000000000000000000000000000000000000081565b6040516001600160a01b039091168152602001610132565b600454610128565b61011d6107fd565b6101c76101b3366004610c44565b60036020525f908152604090205460ff1681565b6040519015158152602001610132565b61011d6101e5366004610c5b565b61080e565b5f546001600160a01b031661017d565b61020d610208366004610cd0565b610875565b6040516101329190610cf0565b61012860015481565b61017d7f000000000000000000000000000000000000000000000000000000000000000081565b6101c7610258366004610c44565b610960565b61011d61026b366004610c44565b610a33565b61011d61027e366004610d47565b610a7c565b61017d7f000000000000000000000000000000000000000000000000000000000000000081565b6102b2610ab6565b604051632820036560e11b8152600481018290525f907f00000000000000000000000000000000000000000000000000000000000000006001600160a01b03169063504006ca9060240161016060405180830381865afa158015610318573d5f803e3d5ffd5b505050506040513d601f19601f8201168201806040525081019061033c9190610df2565b90506001816101200151600481111561035757610357610ea7565b146103915760e081015160405163eb4d8bb160e01b81526004810184905265ffffffffffff90911660248201526044015b60405180910390fd5b6001548160e0015165ffffffffffff166103ab9190610ecf565b42116103e15760e081015160405163eb4d8bb160e01b81526004810184905265ffffffffffff9091166024820152604401610388565b5f8281526003602052604090205460ff1615610413576040516318d6735560e11b815260048101839052602401610388565b5f828152600360209081526040808320805460ff19166001908117909155600480546005855283862081905591820181559093527f8a35acfbc15ff81a39ae7d344fd709f28e8600b4aa8c65c6b64bfe7fe36bd19b90920184905582015160e083015191516001600160a01b039091169184917f0ff3df51bbe824ffeb38063891e2741ae6d54052524384bdea3240e30be26956916104c791429065ffffffffffff92831681529116602082015260400190565b60405180910390a3506104e660015f80516020610f4c83398151915255565b50565b6104f1610ad1565b805f0361051157604051638000b8a160e01b815260040160405180910390fd5b60025460408051918252602082018390527f6b141d34195f1cbfa2080571bebbe19ad6d201cc0d1d53c70550795d14a4be83910160405180910390a1600255565b61055a610ab6565b6004545f81900361057e57604051630401c97160e01b815260040160405180910390fd5b5f600254821061059057600254610592565b815b90505f8080845b5f811180156105a757508482105b15610790578080600190039150505f600482815481106105c9576105c9610ee2565b5f918252602082200154604051632820036560e11b8152600481018290529092507f00000000000000000000000000000000000000000000000000000000000000006001600160a01b03169063504006ca9060240161016060405180830381865afa15801561063a573d5f803e3d5ffd5b505050506040513d601f19601f8201168201806040525081019061065e9190610df2565b90506001816101200151600481111561067957610679610ea7565b146106f45761068782610afd565b817fac2cf79004b80860078bfe63afb6f1727e4179c085e21be7bf5599854e2442a76040516106da9060208082526010908201526f185b1c9958591e481c995cdbdb1d995960821b604082015260600190565b60405180910390a250506001928301929190910190610599565b604051631c3b24f960e31b8152600481018390527f00000000000000000000000000000000000000000000000000000000000000006001600160a01b03169063e1d927c8906024015f604051808303815f87803b158015610753575f80fd5b505af1925050508015610764575060015b61077357600190940193610783565b61077c82610afd565b6001909501945b5050600190910190610599565b604080518381526020810186905290810184905265ffffffffffff421660608201527f2a2bdcf2ab552dc5979d33aa54daebc1285fc52e90948a1614909fc7904425cb9060800160405180910390a15050505050506107fb60015f80516020610f4c83398151915255565b565b610805610ad1565b6107fb5f610bc6565b610816610ad1565b5f8381526003602052604090205460ff16156108705761083583610afd565b827fac2cf79004b80860078bfe63afb6f1727e4179c085e21be7bf5599854e2442a78383604051610867929190610ef6565b60405180910390a25b505050565b600454606090808410610897575050604080515f81526020810190915261095a565b5f6108a28486610ecf565b9050818111156108af5750805b5f6108ba8683610f24565b67ffffffffffffffff8111156108d2576108d2610d62565b6040519080825280602002602001820160405280156108fb578160200160208202803683370190505b509050855b82811015610954576004818154811061091b5761091b610ee2565b905f5260205f2001548288836109319190610f24565b8151811061094157610941610ee2565b6020908102919091010152600101610900565b50925050505b92915050565b604051632820036560e11b8152600481018290525f9081906001600160a01b037f0000000000000000000000000000000000000000000000000000000000000000169063504006ca9060240161016060405180830381865afa1580156109c8573d5f803e3d5ffd5b505050506040513d601f19601f820116820180604052508101906109ec9190610df2565b905060018161012001516004811115610a0757610a07610ea7565b148015610a2c57506001548160e0015165ffffffffffff16610a299190610ecf565b42115b9392505050565b610a3b610ad1565b60015460408051918252602082018390527f55c7a79c45e9a972909cd640f9336a14a84adbaf756211f16267001854110191910160405180910390a1600155565b610a84610ad1565b6001600160a01b038116610aad57604051631e4fbdf760e01b81525f6004820152602401610388565b6104e681610bc6565b610abe610c15565b60025f80516020610f4c83398151915255565b5f546001600160a01b031633146107fb5760405163118cdaa760e01b8152336004820152602401610388565b5f81815260056020526040812054600454909190610b1d90600190610f24565b9050808214610b78575f60048281548110610b3a57610b3a610ee2565b905f5260205f20015490508060048481548110610b5957610b59610ee2565b5f91825260208083209091019290925591825260059052604090208290555b6004805480610b8957610b89610f37565b5f828152602080822083015f19908101839055909201909255938152600584526040808220829055600390945292909220805460ff191690555050565b5f80546001600160a01b038381166001600160a01b0319831681178455604051919092169283917f8be0079c531659141344cd1fd0a4f28419497f9722a3daafe3b4186f6b6457e09190a35050565b5f80516020610f4c833981519152546002036107fb57604051633ee5aeb560e01b815260040160405180910390fd5b5f60208284031215610c54575f80fd5b5035919050565b5f805f60408486031215610c6d575f80fd5b83359250602084013567ffffffffffffffff80821115610c8b575f80fd5b818601915086601f830112610c9e575f80fd5b813581811115610cac575f80fd5b876020828501011115610cbd575f80fd5b6020830194508093505050509250925092565b5f8060408385031215610ce1575f80fd5b50508035926020909101359150565b602080825282518282018190525f9190848201906040850190845b81811015610d2757835183529284019291840191600101610d0b565b50909695505050505050565b6001600160a01b03811681146104e6575f80fd5b5f60208284031215610d57575f80fd5b8135610a2c81610d33565b634e487b7160e01b5f52604160045260245ffd5b604051610160810167ffffffffffffffff81118282101715610da657634e487b7160e01b5f52604160045260245ffd5b60405290565b8051610db781610d33565b919050565b805165ffffffffffff81168114610db7575f80fd5b805160058110610db7575f80fd5b805163ffffffff81168114610db7575f80fd5b5f6101608284031215610e03575f80fd5b610e0b610d76565b82518152610e1b60208401610dac565b602082015260408301516040820152606083015160608201526080830151608082015260a083015160a0820152610e5460c08401610dbc565b60c0820152610e6560e08401610dbc565b60e0820152610100610e78818501610dbc565b90820152610120610e8a848201610dd1565b90820152610140610e9c848201610ddf565b908201529392505050565b634e487b7160e01b5f52602160045260245ffd5b634e487b7160e01b5f52601160045260245ffd5b8082018082111561095a5761095a610ebb565b634e487b7160e01b5f52603260045260245ffd5b60208152816020820152818360408301375f818301604090810191909152601f909201601f19160101919050565b8181038181111561095a5761095a610ebb565b634e487b7160e01b5f52603160045260245ffdfe9b779b17422d0df92223018b32b4d1fa46e071723d6817e2486d003becc55f00a2646970667358221220535c1352e08d1a375cd84006595fbd431ac566bd5e67db9ea0d045368bd34e6964736f6c63430008180033","linkReferences":{}},"methodIdentifiers":{"LENDING_POOL()":"b4dcfc77","REPUTATION_SCORE()":"454fbc9f","WORKER_IDENTITY()":"f52174a4","defaultQueueLength()":"5abb7325","getDefaultQueue(uint256,uint256)":"9c405586","gracePeriod()":"a06db7dc","isOverdue(uint256)":"d22a0d0f","isQueuedForDefault(uint256)":"769ad676","maxBatchSize()":"2913daa0","owner()":"8da5cb5b","processOverdueLoans()":"3bea1cd1","queueForDefault(uint256)":"1dd1e267","removeFromQueue(uint256,string)":"7a940be7","renounceOwnership()":"715018a6","setGracePeriod(uint256)":"f2f65960","setMaxBatchSize(uint256)":"2b26a6bf","transferOwnership(address)":"f2fde38b"},"id":62}