{"abi":[{"type":"constructor","inputs":[{"name":"initialOwner","type":"address","internalType":"address"},{"name":"_workerIdentity","type":"address","internalType":"address"},{"name":"_credentialNft","type":"address","internalType":"address"},{"name":"_registry","type":"address","internalType":"address"}],"stateMutability":"nonpayable"},{"type":"function","name":"CREDENTIAL_NFT","inputs":[],"outputs":[{"name":"","type":"address","internalType":"contract SoulboundCredential"}],"stateMutability":"view"},{"type":"function","name":"MAX_CREDENTIAL_SCORE","inputs":[],"outputs":[{"name":"","type":"uint32","internalType":"uint32"}],"stateMutability":"view"},{"type":"function","name":"MAX_IDENTITY_AGE_SCORE","inputs":[],"outputs":[{"name":"","type":"uint32","internalType":"uint32"}],"stateMutability":"view"},{"type":"function","name":"MAX_LOAN_SCORE","inputs":[],"outputs":[{"name":"","type":"uint32","internalType":"uint32"}],"stateMutability":"view"},{"type":"function","name":"MAX_LONGEVITY_SCORE","inputs":[],"outputs":[{"name":"","type":"uint32","internalType":"uint32"}],"stateMutability":"view"},{"type":"function","name":"MAX_SCORE","inputs":[],"outputs":[{"name":"","type":"uint32","internalType":"uint32"}],"stateMutability":"view"},{"type":"function","name":"REGISTRY","inputs":[],"outputs":[{"name":"","type":"address","internalType":"contract CredentialRegistry"}],"stateMutability":"view"},{"type":"function","name":"WORKER_IDENTITY","inputs":[],"outputs":[{"name":"","type":"address","internalType":"contract IWorkerIdentity"}],"stateMutability":"view"},{"type":"function","name":"computeAndWrite","inputs":[{"name":"wallet","type":"address","internalType":"address"}],"outputs":[],"stateMutability":"nonpayable"},{"type":"function","name":"getLoanScore","inputs":[{"name":"wallet","type":"address","internalType":"address"}],"outputs":[{"name":"","type":"uint32","internalType":"uint32"}],"stateMutability":"view"},{"type":"function","name":"lastComputedAt","inputs":[{"name":"","type":"address","internalType":"address"}],"outputs":[{"name":"","type":"uint48","internalType":"uint48"}],"stateMutability":"view"},{"type":"function","name":"loanManager","inputs":[],"outputs":[{"name":"","type":"address","internalType":"address"}],"stateMutability":"view"},{"type":"function","name":"owner","inputs":[],"outputs":[{"name":"","type":"address","internalType":"address"}],"stateMutability":"view"},{"type":"function","name":"previewScore","inputs":[{"name":"wallet","type":"address","internalType":"address"}],"outputs":[{"name":"credScore","type":"uint32","internalType":"uint32"},{"name":"longevityScore","type":"uint32","internalType":"uint32"},{"name":"loanScore","type":"uint32","internalType":"uint32"},{"name":"identityAgeScore","type":"uint32","internalType":"uint32"},{"name":"total","type":"uint32","internalType":"uint32"}],"stateMutability":"view"},{"type":"function","name":"renounceOwnership","inputs":[],"outputs":[],"stateMutability":"nonpayable"},{"type":"function","name":"setLoanManager","inputs":[{"name":"_loanManager","type":"address","internalType":"address"}],"outputs":[],"stateMutability":"nonpayable"},{"type":"function","name":"transferOwnership","inputs":[{"name":"newOwner","type":"address","internalType":"address"}],"outputs":[],"stateMutability":"nonpayable"},{"type":"function","name":"writeLoanScore","inputs":[{"name":"wallet","type":"address","internalType":"address"},{"name":"delta","type":"int32","internalType":"int32"}],"outputs":[],"stateMutability":"nonpayable"},{"type":"event","name":"LoanManagerUpdated","inputs":[{"name":"oldManager","type":"address","indexed":false,"internalType":"address"},{"name":"newManager","type":"address","indexed":false,"internalType":"address"}],"anonymous":false},{"type":"event","name":"LoanScoreUpdated","inputs":[{"name":"wallet","type":"address","indexed":true,"internalType":"address"},{"name":"oldLoanScore","type":"uint32","indexed":false,"internalType":"uint32"},{"name":"newLoanScore","type":"uint32","indexed":false,"internalType":"uint32"},{"name":"isPositive","type":"bool","indexed":false,"internalType":"bool"}],"anonymous":false},{"type":"event","name":"OwnershipTransferred","inputs":[{"name":"previousOwner","type":"address","indexed":true,"internalType":"address"},{"name":"newOwner","type":"address","indexed":true,"internalType":"address"}],"anonymous":false},{"type":"event","name":"ScoreComputed","inputs":[{"name":"wallet","type":"address","indexed":true,"internalType":"address"},{"name":"credentialScore","type":"uint32","indexed":false,"internalType":"uint32"},{"name":"longevityScore","type":"uint32","indexed":false,"internalType":"uint32"},{"name":"loanScore","type":"uint32","indexed":false,"internalType":"uint32"},{"name":"identityAgeScore","type":"uint32","indexed":false,"internalType":"uint32"},{"name":"totalScore","type":"uint32","indexed":false,"internalType":"uint32"},{"name":"computedAt","type":"uint48","indexed":false,"internalType":"uint48"}],"anonymous":false},{"type":"error","name":"OwnableInvalidOwner","inputs":[{"name":"owner","type":"address","internalType":"address"}]},{"type":"error","name":"OwnableUnauthorizedAccount","inputs":[{"name":"account","type":"address","internalType":"address"}]},{"type":"error","name":"ReentrancyGuardReentrantCall","inputs":[]},{"type":"error","name":"ReputationScore__LoanScoreOverflow","inputs":[{"name":"current","type":"uint32","internalType":"uint32"},{"name":"delta","type":"int32","internalType":"int32"}]},{"type":"error","name":"ReputationScore__NotRegistered","inputs":[{"name":"wallet","type":"address","internalType":"address"}]},{"type":"error","name":"ReputationScore__Unauthorized","inputs":[{"name":"caller","type":"address","internalType":"address"}]},{"type":"error","name":"ReputationScore__ZeroAddress","inputs":[]}],"bytecode":{"object":"0x60e060405234801562000010575f80fd5b50604051620018903803806200189083398101604081905262000033916200016c565b836001600160a01b0381166200006257604051631e4fbdf760e01b81525f600482015260240160405180910390fd5b6200006d8162000101565b5060017f9b779b17422d0df92223018b32b4d1fa46e071723d6817e2486d003becc55f00556001600160a01b0383161580620000b057506001600160a01b038216155b80620000c357506001600160a01b038116155b15620000e25760405163084fb29560e11b815260040160405180910390fd5b6001600160a01b0392831660805290821660a0521660c05250620001c6565b5f80546001600160a01b038381166001600160a01b0319831681178455604051919092169283917f8be0079c531659141344cd1fd0a4f28419497f9722a3daafe3b4186f6b6457e09190a35050565b80516001600160a01b038116811462000167575f80fd5b919050565b5f805f806080858703121562000180575f80fd5b6200018b8562000150565b93506200019b6020860162000150565b9250620001ab6040860162000150565b9150620001bb6060860162000150565b905092959194509250565b60805160a05160c051611667620002295f395f818161015c01528181610bd30152610c6901525f818161028201528181610a300152610ac901525f81816102f30152818161036e0152818161066b01528181610793015261099301526116675ff3fe608060405234801561000f575f80fd5b5060043610610110575f3560e01c80638da5cb5b1161009e578063d1ff4c151161006e578063d1ff4c15146102b7578063da616abd146102bf578063f011891c146102c8578063f2fde38b146102db578063f52174a4146102ee575f80fd5b80638da5cb5b1461026457806397640fb2146102745780639af683041461027d578063b3ccbcfe146102a4575f80fd5b80634247d82c116100e45780634247d82c146101e25780635772ae70146101f7578063715018a61461020a5780637436876d14610212578063855917b41461025c575f80fd5b80622219831461011457806306433b1b146101575780632330fba71461019657806327ff6223146101d9575b5f80fd5b61013b610122366004611046565b60036020525f908152604090205465ffffffffffff1681565b60405165ffffffffffff90911681526020015b60405180910390f35b61017e7f000000000000000000000000000000000000000000000000000000000000000081565b6040516001600160a01b03909116815260200161014e565b6101c46101a4366004611046565b6001600160a01b03165f9081526002602052604090205463ffffffff1690565b60405163ffffffff909116815260200161014e565b6101c46103e881565b6101f56101f0366004611068565b610315565b005b6101f5610205366004611046565b610521565b6101f56105b9565b610225610220366004611046565b6105cc565b6040805163ffffffff968716815294861660208601529285169284019290925283166060830152909116608082015260a00161014e565b6101c4606481565b5f546001600160a01b031661017e565b6101c461012c81565b61017e7f000000000000000000000000000000000000000000000000000000000000000081565b60015461017e906001600160a01b031681565b6101c460c881565b6101c461019081565b6101f56102d6366004611046565b610644565b6101f56102e9366004611046565b61089c565b61017e7f000000000000000000000000000000000000000000000000000000000000000081565b61031d6108d6565b6001546001600160a01b0316331461034f5760405163eb61a57160e01b81523360048201526024015b60405180910390fd5b604051639f8a13d760e01b81526001600160a01b0383811660048301527f00000000000000000000000000000000000000000000000000000000000000001690639f8a13d790602401602060405180830381865afa1580156103b3573d5f803e3d5ffd5b505050506040513d601f19601f820116820180604052508101906103d791906110b9565b6103ff57604051634530bcef60e01b81526001600160a01b0383166004820152602401610346565b6001600160a01b0382165f9081526002602052604081205463ffffffff1690600383900b8113610452578261043481846110e6565b915061012c63ffffffff8316111561044c5761012c91505b50610485565b5f61045c8461110a565b90508063ffffffff168363ffffffff1611610477575f610481565b610481818461112b565b9150505b6001600160a01b0384165f818152600260209081526040808320805463ffffffff191663ffffffff8781169182179092558251918816825292810192909252600387900b92909212159181018290529091907f74f7d084ee8ce43c0e0e512340800c652bb47269d155c21b3c842346f89a656d9060600160405180910390a250505061051d60015f8051602061161283398151915255565b5050565b6105296108f1565b6001600160a01b0381166105505760405163084fb29560e11b815260040160405180910390fd5b600154604080516001600160a01b03928316815291831660208301527ffdf6314fb555cec5a13bf6516f91ba9c16633352a4b520c6fdbde4f0ce21349d910160405180910390a1600180546001600160a01b0319166001600160a01b0392909216919091179055565b6105c16108f1565b6105ca5f61091d565b565b5f805f805f6105da8661096c565b6001600160a01b0389165f9081526002602052604090205492975090955063ffffffff90911693509150818361061086886110e6565b61061a91906110e6565b61062491906110e6565b90506103e863ffffffff8216111561063b57506103e85b91939590929450565b61064c6108d6565b604051639f8a13d760e01b81526001600160a01b0382811660048301527f00000000000000000000000000000000000000000000000000000000000000001690639f8a13d790602401602060405180830381865afa1580156106b0573d5f803e3d5ffd5b505050506040513d601f19601f820116820180604052508101906106d491906110b9565b6106fc57604051634530bcef60e01b81526001600160a01b0382166004820152602401610346565b5f805f6107088461096c565b6001600160a01b0387165f90815260026020526040812054939650919450925063ffffffff90911690828261073d86886110e6565b61074791906110e6565b61075191906110e6565b90506103e863ffffffff8216111561076857506103e85b604051637a00af1160e11b81526001600160a01b03878116600483015263ffffffff831660248301527f0000000000000000000000000000000000000000000000000000000000000000169063f4015e22906044015f604051808303815f87803b1580156107d4575f80fd5b505af11580156107e6573d5f803e3d5ffd5b505050506001600160a01b0386165f81815260036020908152604091829020805465ffffffffffff421665ffffffffffff199091168117909155825163ffffffff8a8116825289811693820193909352868316818501528783166060820152918516608083015260a082015290517feb6d6e09d62ae338c5f2f861047dd089b5935f97c73b4a97c557b54f431c30b09181900360c00190a2505050505061089960015f8051602061161283398151915255565b50565b6108a46108f1565b6001600160a01b0381166108cd57604051631e4fbdf760e01b81525f6004820152602401610346565b6108998161091d565b6108de610df8565b60025f8051602061161283398151915255565b5f546001600160a01b031633146105ca5760405163118cdaa760e01b8152336004820152602401610346565b5f80546001600160a01b038381166001600160a01b0319831681178455604051919092169283917f8be0079c531659141344cd1fd0a4f28419497f9722a3daafe3b4186f6b6457e09190a35050565b604051632fea7b8160e01b81526001600160a01b0382811660048301525f918291829182917f00000000000000000000000000000000000000000000000000000000000000001690632fea7b819060240161010060405180830381865afa1580156109d9573d5f803e3d5ffd5b505050506040513d601f19601f820116820180604052508101906109fd919061121c565b9050610a0c8160800151610e27565b60405163191f745360e31b81526001600160a01b0387811660048301529193505f917f0000000000000000000000000000000000000000000000000000000000000000169063c8fba298906024015f60405180830381865afa158015610a74573d5f803e3d5ffd5b505050506040513d5f823e601f3d908101601f19168201604052610a9b91908101906112d6565b905080515f03610ab2575f80945094505050610df1565b5f65ffffffffffff8180805b8551811015610dad577f00000000000000000000000000000000000000000000000000000000000000006001600160a01b0316638dd18d2d878381518110610b0857610b08611377565b60200260200101516040518263ffffffff1660e01b8152600401610b2e91815260200190565b61012060405180830381865afa925050508015610b68575060408051601f3d908101601f19168201909252610b6591810190611399565b60015b15610da5575f8160c0015165ffffffffffff165f14158015610b9557508160c0015165ffffffffffff1642115b9050816101000151158015610ba8575080155b8015610c3e5750602082015160405163673448dd60e01b81526001600160a01b0391821660048201527f00000000000000000000000000000000000000000000000000000000000000009091169063673448dd90602401602060405180830381865afa158015610c1a573d5f803e3d5ffd5b505050506040513d601f19601f82011682018060405250810190610c3e91906110b9565b15610da257602082015160405163388cc91b60e11b81526001600160a01b0391821660048201525f917f000000000000000000000000000000000000000000000000000000000000000016906371199236906024015f60405180830381865afa158015610cad573d5f803e3d5ffd5b505050506040513d5f823e601f3d908101601f19168201604052610cd491908101906114bf565b6060015190505f6003826003811115610cef57610cef6115cd565b149050610d028460600151828989610e95565b610d0c908a6110e6565b9850600384606001516005811115610d2657610d266115cd565b03610d3657600190960195610d7b565b600484606001516005811115610d4e57610d4e6115cd565b1480610d6f5750600584606001516005811115610d6d57610d6d6115cd565b145b15610d7b576001909501945b8765ffffffffffff168460a0015165ffffffffffff161015610d9f578360a0015197505b50505b50505b600101610abe565b5061019063ffffffff851611610dc35783610dc7565b6101905b985065ffffffffffff83811614610de657610de183610fa7565b610de8565b5f5b97505050505050505b9193909250565b5f80516020611612833981519152546002036105ca57604051633ee5aeb560e01b815260040160405180910390fd5b5f80610e3b65ffffffffffff8416426115e1565b9050610e4c6301e1338060026115fa565b8110610e5b5750606492915050565b6301e133808110610e6f5750604b92915050565b610e7d62278d0060066115fa565b8110610e8c5750603292915050565b50601992915050565b5f80856005811115610ea957610ea96115cd565b03610ec75783610eba576064610ebd565b60785b60ff169050610f9f565b6002856005811115610edb57610edb6115cd565b03610ef45783610eec57604b610ebd565b50605a610f9f565b6001856005811115610f0857610f086115cd565b03610f215783610f19576032610ebd565b50603c610f9f565b6003856005811115610f3557610f356115cd565b03610f505760028310610f48575f610ebd565b506028610f9f565b6004856005811115610f6457610f646115cd565b1480610f8157506005856005811115610f7f57610f7f6115cd565b145b15610f9c5760038210610f94575f610ebd565b50600f610f9f565b505f5b949350505050565b5f80610fbb65ffffffffffff8416426115e1565b9050610fcc6301e1338060046115fa565b8110610fdb575060c892915050565b610fea6301e1338060026115fa565b8110610ff95750609692915050565b6301e13380811061100d5750606492915050565b61101b62278d0060066115fa565b811061102a5750603292915050565b505f92915050565b6001600160a01b0381168114610899575f80fd5b5f60208284031215611056575f80fd5b813561106181611032565b9392505050565b5f8060408385031215611079575f80fd5b823561108481611032565b91506020830135600381900b811461109a575f80fd5b809150509250929050565b805180151581146110b4575f80fd5b919050565b5f602082840312156110c9575f80fd5b611061826110a5565b634e487b7160e01b5f52601160045260245ffd5b63ffffffff818116838216019080821115611103576111036110d2565b5092915050565b5f8160030b637fffffff198103611123576111236110d2565b5f0392915050565b63ffffffff828116828216039080821115611103576111036110d2565b634e487b7160e01b5f52604160045260245ffd5b604051610120810167ffffffffffffffff8111828210171561118057611180611148565b60405290565b604051610140810167ffffffffffffffff8111828210171561118057611180611148565b604051601f8201601f1916810167ffffffffffffffff811182821017156111d3576111d3611148565b604052919050565b80516110b481611032565b8051600481106110b4575f80fd5b805165ffffffffffff811681146110b4575f80fd5b805163ffffffff811681146110b4575f80fd5b5f61010080838503121561122e575f80fd5b6040519081019067ffffffffffffffff8211818310171561125157611251611148565b816040528351915061126282611032565b8181526020840151602082015260408401516040820152611285606085016111e6565b6060820152611296608085016111f4565b60808201526112a760a085016111f4565b60a08201526112b860c08501611209565b60c08201526112c960e08501611209565b60e0820152949350505050565b5f60208083850312156112e7575f80fd5b825167ffffffffffffffff808211156112fe575f80fd5b818501915085601f830112611311575f80fd5b81518181111561132357611323611148565b8060051b91506113348483016111aa565b818152918301840191848101908884111561134d575f80fd5b938501935b8385101561136b57845182529385019390850190611352565b98975050505050505050565b634e487b7160e01b5f52603260045260245ffd5b8051600681106110b4575f80fd5b5f61012082840312156113aa575f80fd5b6113b261115c565b825181526113c2602084016111db565b60208201526113d3604084016111db565b60408201526113e46060840161138b565b60608201526113f5608084016111e6565b608082015261140660a084016111f4565b60a082015261141760c084016111f4565b60c082015260e083015160e08201526101006114348185016110a5565b908201529392505050565b5f82601f83011261144e575f80fd5b815167ffffffffffffffff81111561146857611468611148565b602061147c601f8301601f191682016111aa565b828152858284870101111561148f575f80fd5b5f5b838110156114ac578581018301518282018401528201611491565b505f928101909101919091529392505050565b5f602082840312156114cf575f80fd5b815167ffffffffffffffff808211156114e6575f80fd5b9083019061014082860312156114fa575f80fd5b611502611186565b61150b836111db565b815260208301518281111561151e575f80fd5b61152a8782860161143f565b602083015250604083015182811115611541575f80fd5b61154d8782860161143f565b60408301525061155f606084016111e6565b6060820152611570608084016111f4565b608082015261158160a084016111f4565b60a082015260c083015160c082015260e083015160e082015261010091506115aa8284016111f4565b8282015261012091506115be8284016110a5565b91810191909152949350505050565b634e487b7160e01b5f52602160045260245ffd5b818103818111156115f4576115f46110d2565b92915050565b80820281158282048414176115f4576115f46110d256fe9b779b17422d0df92223018b32b4d1fa46e071723d6817e2486d003becc55f00a26469706673582212209783358624f6cc44cd7ebd13ee2a18038cde0ec2ae6d87c338935ddb388bec2464736f6c63430008180033","linkReferences":{}},"methodIdentifiers":{"CREDENTIAL_NFT()":"9af68304","MAX_CREDENTIAL_SCORE()":"da616abd","MAX_IDENTITY_AGE_SCORE()":"855917b4","MAX_LOAN_SCORE()":"97640fb2","MAX_LONGEVITY_SCORE()":"d1ff4c15","MAX_SCORE()":"27ff6223","REGISTRY()":"06433b1b","WORKER_IDENTITY()":"f52174a4","computeAndWrite(address)":"f011891c","getLoanScore(address)":"2330fba7","lastComputedAt(address)":"00221983","loanManager()":"b3ccbcfe","owner()":"8da5cb5b","previewScore(address)":"7436876d","renounceOwnership()":"715018a6","setLoanManager(address)":"5772ae70","transferOwnership(address)":"f2fde38b","writeLoanScore(address,int32)":"4247d82c"},"id":55}