{"abi":[{"type":"constructor","inputs":[{"name":"initialOwner","type":"address","internalType":"address"}],"stateMutability":"nonpayable"},{"type":"function","name":"approve","inputs":[{"name":"to","type":"address","internalType":"address"},{"name":"tokenId","type":"uint256","internalType":"uint256"}],"outputs":[],"stateMutability":"nonpayable"},{"type":"function","name":"balanceOf","inputs":[{"name":"owner","type":"address","internalType":"address"}],"outputs":[{"name":"","type":"uint256","internalType":"uint256"}],"stateMutability":"view"},{"type":"function","name":"burn","inputs":[{"name":"tokenId","type":"uint256","internalType":"uint256"}],"outputs":[],"stateMutability":"nonpayable"},{"type":"function","name":"burnAuth","inputs":[{"name":"tokenId","type":"uint256","internalType":"uint256"}],"outputs":[{"name":"","type":"uint8","internalType":"enum ICredential.BurnAuth"}],"stateMutability":"view"},{"type":"function","name":"credentialRegistry","inputs":[],"outputs":[{"name":"","type":"address","internalType":"address"}],"stateMutability":"view"},{"type":"function","name":"getApproved","inputs":[{"name":"tokenId","type":"uint256","internalType":"uint256"}],"outputs":[{"name":"","type":"address","internalType":"address"}],"stateMutability":"view"},{"type":"function","name":"getCredential","inputs":[{"name":"tokenId","type":"uint256","internalType":"uint256"}],"outputs":[{"name":"","type":"tuple","internalType":"struct ICredential.Credential","components":[{"name":"tokenId","type":"uint256","internalType":"uint256"},{"name":"issuer","type":"address","internalType":"address"},{"name":"holder","type":"address","internalType":"address"},{"name":"credentialType","type":"uint8","internalType":"enum ICredential.CredentialType"},{"name":"burnAuth","type":"uint8","internalType":"enum ICredential.BurnAuth"},{"name":"issuedAt","type":"uint48","internalType":"uint48"},{"name":"expiresAt","type":"uint48","internalType":"uint48"},{"name":"metadataHash","type":"bytes32","internalType":"bytes32"},{"name":"revoked","type":"bool","internalType":"bool"}]}],"stateMutability":"view"},{"type":"function","name":"getCredentialsByHolder","inputs":[{"name":"holder","type":"address","internalType":"address"}],"outputs":[{"name":"","type":"uint256[]","internalType":"uint256[]"}],"stateMutability":"view"},{"type":"function","name":"getCredentialsByIssuer","inputs":[{"name":"issuer","type":"address","internalType":"address"}],"outputs":[{"name":"","type":"uint256[]","internalType":"uint256[]"}],"stateMutability":"view"},{"type":"function","name":"isApprovedForAll","inputs":[{"name":"owner","type":"address","internalType":"address"},{"name":"operator","type":"address","internalType":"address"}],"outputs":[{"name":"","type":"bool","internalType":"bool"}],"stateMutability":"view"},{"type":"function","name":"isValid","inputs":[{"name":"tokenId","type":"uint256","internalType":"uint256"}],"outputs":[{"name":"","type":"bool","internalType":"bool"}],"stateMutability":"view"},{"type":"function","name":"issue","inputs":[{"name":"issuer","type":"address","internalType":"address"},{"name":"holder","type":"address","internalType":"address"},{"name":"credentialType","type":"uint8","internalType":"enum ICredential.CredentialType"},{"name":"burnAuthValue","type":"uint8","internalType":"enum ICredential.BurnAuth"},{"name":"expiresAt","type":"uint48","internalType":"uint48"},{"name":"metadataHash","type":"bytes32","internalType":"bytes32"}],"outputs":[{"name":"tokenId","type":"uint256","internalType":"uint256"}],"stateMutability":"nonpayable"},{"type":"function","name":"name","inputs":[],"outputs":[{"name":"","type":"string","internalType":"string"}],"stateMutability":"view"},{"type":"function","name":"owner","inputs":[],"outputs":[{"name":"","type":"address","internalType":"address"}],"stateMutability":"view"},{"type":"function","name":"ownerOf","inputs":[{"name":"tokenId","type":"uint256","internalType":"uint256"}],"outputs":[{"name":"","type":"address","internalType":"address"}],"stateMutability":"view"},{"type":"function","name":"pause","inputs":[],"outputs":[],"stateMutability":"nonpayable"},{"type":"function","name":"paused","inputs":[],"outputs":[{"name":"","type":"bool","internalType":"bool"}],"stateMutability":"view"},{"type":"function","name":"renounceOwnership","inputs":[],"outputs":[],"stateMutability":"nonpayable"},{"type":"function","name":"revoke","inputs":[{"name":"tokenId","type":"uint256","internalType":"uint256"},{"name":"reason","type":"string","internalType":"string"}],"outputs":[],"stateMutability":"nonpayable"},{"type":"function","name":"safeTransferFrom","inputs":[{"name":"from","type":"address","internalType":"address"},{"name":"to","type":"address","internalType":"address"},{"name":"tokenId","type":"uint256","internalType":"uint256"}],"outputs":[],"stateMutability":"nonpayable"},{"type":"function","name":"safeTransferFrom","inputs":[{"name":"from","type":"address","internalType":"address"},{"name":"to","type":"address","internalType":"address"},{"name":"tokenId","type":"uint256","internalType":"uint256"},{"name":"data","type":"bytes","internalType":"bytes"}],"outputs":[],"stateMutability":"nonpayable"},{"type":"function","name":"setApprovalForAll","inputs":[{"name":"operator","type":"address","internalType":"address"},{"name":"approved","type":"bool","internalType":"bool"}],"outputs":[],"stateMutability":"nonpayable"},{"type":"function","name":"setCredentialRegistry","inputs":[{"name":"registry","type":"address","internalType":"address"}],"outputs":[],"stateMutability":"nonpayable"},{"type":"function","name":"supportsInterface","inputs":[{"name":"interfaceId","type":"bytes4","internalType":"bytes4"}],"outputs":[{"name":"","type":"bool","internalType":"bool"}],"stateMutability":"view"},{"type":"function","name":"symbol","inputs":[],"outputs":[{"name":"","type":"string","internalType":"string"}],"stateMutability":"view"},{"type":"function","name":"tokenURI","inputs":[{"name":"tokenId","type":"uint256","internalType":"uint256"}],"outputs":[{"name":"","type":"string","internalType":"string"}],"stateMutability":"view"},{"type":"function","name":"totalSupply","inputs":[],"outputs":[{"name":"","type":"uint256","internalType":"uint256"}],"stateMutability":"view"},{"type":"function","name":"transferFrom","inputs":[{"name":"from","type":"address","internalType":"address"},{"name":"to","type":"address","internalType":"address"},{"name":"tokenId","type":"uint256","internalType":"uint256"}],"outputs":[],"stateMutability":"nonpayable"},{"type":"function","name":"transferOwnership","inputs":[{"name":"newOwner","type":"address","internalType":"address"}],"outputs":[],"stateMutability":"nonpayable"},{"type":"function","name":"unpause","inputs":[],"outputs":[],"stateMutability":"nonpayable"},{"type":"event","name":"Approval","inputs":[{"name":"owner","type":"address","indexed":true,"internalType":"address"},{"name":"approved","type":"address","indexed":true,"internalType":"address"},{"name":"tokenId","type":"uint256","indexed":true,"internalType":"uint256"}],"anonymous":false},{"type":"event","name":"ApprovalForAll","inputs":[{"name":"owner","type":"address","indexed":true,"internalType":"address"},{"name":"operator","type":"address","indexed":true,"internalType":"address"},{"name":"approved","type":"bool","indexed":false,"internalType":"bool"}],"anonymous":false},{"type":"event","name":"CredentialRevoked","inputs":[{"name":"tokenId","type":"uint256","indexed":true,"internalType":"uint256"},{"name":"issuer","type":"address","indexed":true,"internalType":"address"},{"name":"holder","type":"address","indexed":true,"internalType":"address"},{"name":"reason","type":"string","indexed":false,"internalType":"string"}],"anonymous":false},{"type":"event","name":"Issued","inputs":[{"name":"tokenId","type":"uint256","indexed":true,"internalType":"uint256"},{"name":"issuer","type":"address","indexed":true,"internalType":"address"},{"name":"holder","type":"address","indexed":true,"internalType":"address"},{"name":"burnAuth","type":"uint8","indexed":false,"internalType":"enum ICredential.BurnAuth"}],"anonymous":false},{"type":"event","name":"MetadataUpdated","inputs":[{"name":"tokenId","type":"uint256","indexed":true,"internalType":"uint256"},{"name":"oldHash","type":"bytes32","indexed":false,"internalType":"bytes32"},{"name":"newHash","type":"bytes32","indexed":false,"internalType":"bytes32"}],"anonymous":false},{"type":"event","name":"OwnershipTransferred","inputs":[{"name":"previousOwner","type":"address","indexed":true,"internalType":"address"},{"name":"newOwner","type":"address","indexed":true,"internalType":"address"}],"anonymous":false},{"type":"event","name":"Paused","inputs":[{"name":"account","type":"address","indexed":false,"internalType":"address"}],"anonymous":false},{"type":"event","name":"Transfer","inputs":[{"name":"from","type":"address","indexed":true,"internalType":"address"},{"name":"to","type":"address","indexed":true,"internalType":"address"},{"name":"tokenId","type":"uint256","indexed":true,"internalType":"uint256"}],"anonymous":false},{"type":"event","name":"Unpaused","inputs":[{"name":"account","type":"address","indexed":false,"internalType":"address"}],"anonymous":false},{"type":"error","name":"Credential__AlreadyRevoked","inputs":[{"name":"tokenId","type":"uint256","internalType":"uint256"}]},{"type":"error","name":"Credential__Expired","inputs":[{"name":"tokenId","type":"uint256","internalType":"uint256"},{"name":"expiresAt","type":"uint48","internalType":"uint48"}]},{"type":"error","name":"Credential__ExpiryBeforeIssuance","inputs":[]},{"type":"error","name":"Credential__InvalidHolder","inputs":[{"name":"holder","type":"address","internalType":"address"}]},{"type":"error","name":"Credential__InvalidIssuer","inputs":[{"name":"caller","type":"address","internalType":"address"}]},{"type":"error","name":"Credential__InvalidMetadataHash","inputs":[]},{"type":"error","name":"Credential__NotFound","inputs":[{"name":"tokenId","type":"uint256","internalType":"uint256"}]},{"type":"error","name":"Credential__NotTransferable","inputs":[]},{"type":"error","name":"Credential__UnauthorizedBurn","inputs":[{"name":"caller","type":"address","internalType":"address"},{"name":"tokenId","type":"uint256","internalType":"uint256"}]},{"type":"error","name":"ERC721IncorrectOwner","inputs":[{"name":"sender","type":"address","internalType":"address"},{"name":"tokenId","type":"uint256","internalType":"uint256"},{"name":"owner","type":"address","internalType":"address"}]},{"type":"error","name":"ERC721InsufficientApproval","inputs":[{"name":"operator","type":"address","internalType":"address"},{"name":"tokenId","type":"uint256","internalType":"uint256"}]},{"type":"error","name":"ERC721InvalidApprover","inputs":[{"name":"approver","type":"address","internalType":"address"}]},{"type":"error","name":"ERC721InvalidOperator","inputs":[{"name":"operator","type":"address","internalType":"address"}]},{"type":"error","name":"ERC721InvalidOwner","inputs":[{"name":"owner","type":"address","internalType":"address"}]},{"type":"error","name":"ERC721InvalidReceiver","inputs":[{"name":"receiver","type":"address","internalType":"address"}]},{"type":"error","name":"ERC721InvalidSender","inputs":[{"name":"sender","type":"address","internalType":"address"}]},{"type":"error","name":"ERC721NonexistentToken","inputs":[{"name":"tokenId","type":"uint256","internalType":"uint256"}]},{"type":"error","name":"EnforcedPause","inputs":[]},{"type":"error","name":"ExpectedPause","inputs":[]},{"type":"error","name":"OwnableInvalidOwner","inputs":[{"name":"owner","type":"address","internalType":"address"}]},{"type":"error","name":"OwnableUnauthorizedAccount","inputs":[{"name":"account","type":"address","internalType":"address"}]},{"type":"error","name":"ReentrancyGuardReentrantCall","inputs":[]}],"bytecode":{"object":"0x608060405234801562000010575f80fd5b50604051620024de380380620024de833981016040819052620000339162000163565b806040518060400160405280601381526020017f56657261466c6f772043726564656e7469616c000000000000000000000000008152506040518060400160405280600381526020016256464360e81b815250815f908162000096919062000230565b506001620000a5828262000230565b5050506001600160a01b038116620000d657604051631e4fbdf760e01b81525f600482015260240160405180910390fd5b620000e18162000112565b5060017f9b779b17422d0df92223018b32b4d1fa46e071723d6817e2486d003becc55f0055506001600855620002fc565b600680546001600160a01b038381166001600160a01b0319831681179093556040519116919082907f8be0079c531659141344cd1fd0a4f28419497f9722a3daafe3b4186f6b6457e0905f90a35050565b5f6020828403121562000174575f80fd5b81516001600160a01b03811681146200018b575f80fd5b9392505050565b634e487b7160e01b5f52604160045260245ffd5b600181811c90821680620001bb57607f821691505b602082108103620001da57634e487b7160e01b5f52602260045260245ffd5b50919050565b601f8211156200022b57805f5260205f20601f840160051c81016020851015620002075750805b601f840160051c820191505b8181101562000228575f815560010162000213565b50505b505050565b81516001600160401b038111156200024c576200024c62000192565b62000264816200025d8454620001a6565b84620001e0565b602080601f8311600181146200029a575f8415620002825750858301515b5f19600386901b1c1916600185901b178555620002f4565b5f85815260208120601f198616915b82811015620002ca57888601518255948401946001909101908401620002a9565b5085821015620002e857878501515f19600388901b60f8161c191681555b505060018460011b0185555b505050505050565b6121d4806200030a5f395ff3fe608060405234801561000f575f80fd5b50600436106101d1575f3560e01c8063715018a6116100fe578063b88d4fde1161009e578063e985e9c51161006e578063e985e9c5146103ef578063eb929ad514610402578063f2fde38b14610415578063f577a50014610428575f80fd5b8063b88d4fde146103a3578063b948c3d4146103b6578063c87b56dd146103c9578063c8fba298146103dc575f80fd5b80638dd18d2d116100d95780638dd18d2d1461035557806395d89b4114610375578063a22cb4651461037d578063a701370714610390575f80fd5b8063715018a6146103345780638456cb591461033c5780638da5cb5b14610344575f80fd5b80632cf2d8dc1161017457806342966c681161014457806342966c68146102e95780635c975abb146102fc5780636352211e1461030e57806370a0823114610321575f80fd5b80632cf2d8dc1461029b57806332860d6b146102ae5780633f4ba83a146102ce57806342842e0e146102d6575f80fd5b8063081812fc116101af578063081812fc14610232578063095ea7b31461025d57806318160ddd1461027257806323b872dd14610288575f80fd5b806301ffc9a7146101d55780630489b56f146101fd57806306fdde031461021d575b5f80fd5b6101e86101e3366004611baf565b61043b565b60405190151581526020015b60405180910390f35b61021061020b366004611bca565b61048c565b6040516101f49190611c09565b6102256104e7565b6040516101f49190611c64565b610245610240366004611bca565b610576565b6040516001600160a01b0390911681526020016101f4565b61027061026b366004611c91565b61059d565b005b61027a6105ac565b6040519081526020016101f4565b610270610296366004611cb9565b6105c1565b61027a6102a9366004611cf2565b61064a565b6102c16102bc366004611d73565b610999565b6040516101f49190611d8c565b610270610a02565b6102706102e4366004611cb9565b610a14565b6102706102f7366004611bca565b610a33565b600654600160a01b900460ff166101e8565b61024561031c366004611bca565b610c0e565b61027a61032f366004611d73565b610c18565b610270610c5d565b610270610c6e565b6006546001600160a01b0316610245565b610368610363366004611bca565b610c7e565b6040516101f49190611ddf565b610225610df9565b61027061038b366004611e8e565b610e08565b61027061039e366004611d73565b610e13565b6102706103b1366004611edb565b610e66565b600754610245906001600160a01b031681565b6102256103d7366004611bca565b610e7e565b6102c16103ea366004611d73565b610eef565b6101e86103fd366004611fb0565b610f56565b610270610410366004611fe1565b610f83565b610270610423366004611d73565b6110ae565b6101e8610436366004611bca565b6110e8565b5f6001600160e01b031982166380ac58cd60e01b148061046b57506001600160e01b03198216635b5e139f60e01b145b8061048657506301ffc9a760e01b6001600160e01b03198316145b92915050565b5f818152600260205260408120546001600160a01b03166104c8576040516366676c7360e01b8152600481018390526024015b60405180910390fd5b505f90815260096020526040902060020154600160a81b900460ff1690565b60605f80546104f590612056565b80601f016020809104026020016040519081016040528092919081815260200182805461052190612056565b801561056c5780601f106105435761010080835404028352916020019161056c565b820191905f5260205f20905b81548152906001019060200180831161054f57829003601f168201915b5050505050905090565b5f61058082611168565b505f828152600460205260409020546001600160a01b0316610486565b6105a88282336111a0565b5050565b5f60016008546105bc919061208e565b905090565b6001600160a01b0382166105ea57604051633250574960e11b81525f60048201526024016104bf565b5f6105f68383336111ad565b9050836001600160a01b0316816001600160a01b031614610644576040516364283d7b60e01b81526001600160a01b03808616600483015260248201849052821660448201526064016104bf565b50505050565b5f61065361120d565b61065b61123a565b610663611265565b6001600160a01b0387166106955760405163f4488b9560e01b81526001600160a01b03881660048201526024016104bf565b6001600160a01b0386166106c757604051630b7ff26960e21b81526001600160a01b03871660048201526024016104bf565b816106e557604051635f6fa75f60e11b815260040160405180910390fd5b65ffffffffffff83161580159061070c57504265ffffffffffff168365ffffffffffff1611155b1561072a57604051630c734d1560e01b815260040160405180910390fd5b50600880546001810190915560408051610120810182528281526001600160a01b03808a1660208301528816918101919091526060810186600581111561077357610773611be1565b815260200185600381111561078a5761078a611be1565b815265ffffffffffff42811660208084019190915290861660408084019190915260608084018790525f6080909401849052858452600983529281902084518155918401516001830180546001600160a01b039283166001600160a01b03199182161790915591850151600284018054919092169281168317825593850151929390916001600160a81b031990911617600160a01b83600581111561083157610831611be1565b0217905550608082015160028201805460ff60a81b1916600160a81b83600381111561085f5761085f611be1565b021790555060a082015160028201805465ffffffffffff60b01b1916600160b01b65ffffffffffff9384160217905560c083015160038301805465ffffffffffff19169190921617905560e08201516004820155610100909101516005909101805460ff19169115159190911790556001600160a01b038681165f908152600a602090815260408083208054868552600c84528285208190556001818101835591855283852001869055938b168352600b8252822080549384018155825290200181905561092d8682611280565b856001600160a01b0316876001600160a01b0316827f63ac61a71266aaaef9cffb3e797a1ef11e9609a6f84777c3af237adac7f922ed876040516109719190611c09565b60405180910390a461098f60015f8051602061217f83398151915255565b9695505050505050565b6001600160a01b0381165f908152600b60209081526040918290208054835181840281018401909452808452606093928301828280156109f657602002820191905f5260205f20905b8154815260200190600101908083116109e2575b50505050509050919050565b610a0a611299565b610a126112c6565b565b610a2e83838360405180602001604052805f815250610e66565b505050565b610a3b611265565b5f818152600260205260409020546001600160a01b0316610a72576040516366676c7360e01b8152600481018290526024016104bf565b5f81815260096020526040812060028101549091600160a81b90910460ff169080826003811115610aa557610aa5611be1565b03610ac0575060018201546001600160a01b03163314610b52565b6001826003811115610ad457610ad4611be1565b03610aef575060028201546001600160a01b03163314610b52565b6002826003811115610b0357610b03611be1565b03610b365760018301546001600160a01b0316331480610b2f575060028301546001600160a01b031633145b9050610b52565b6003826003811115610b4a57610b4a611be1565b03610b5257505f5b80610b79576040516311f35e8b60e21b8152336004820152602481018590526044016104bf565b6002830154610b91906001600160a01b03168561131b565b5f8481526009602052604081208181556001810180546001600160a01b03191690556002810180546001600160e01b031916905560038101805465ffffffffffff191690556004810191909155600501805460ff19169055610bf2846113e9565b505050610c0b60015f8051602061217f83398151915255565b50565b5f61048682611168565b5f6001600160a01b038216610c42576040516322718ad960e21b81525f60048201526024016104bf565b506001600160a01b03165f9081526003602052604090205490565b610c65611299565b610a125f611421565b610c76611299565b610a12611472565b610cca60408051610120810182525f8082526020820181905291810182905290606082019081526020015f81525f60208201819052604082018190526060820181905260809091015290565b5f828152600260205260409020546001600160a01b0316610d01576040516366676c7360e01b8152600481018390526024016104bf565b5f828152600960209081526040918290208251610120810184528154815260018201546001600160a01b0390811693820193909352600282015492831693810193909352906060830190600160a01b900460ff166005811115610d6657610d66611be1565b6005811115610d7757610d77611be1565b81526020016002820160159054906101000a900460ff166003811115610d9f57610d9f611be1565b6003811115610db057610db0611be1565b8152600282015465ffffffffffff600160b01b9091048116602083015260038301541660408201526004820154606082015260059091015460ff16151560809091015292915050565b6060600180546104f590612056565b6105a83383836114b5565b610e1b611299565b6001600160a01b038116610e445760405163f4488b9560e01b81525f60048201526024016104bf565b600780546001600160a01b0319166001600160a01b0392909216919091179055565b610e718484846105c1565b610644338585858561157c565b6060610e8982611168565b505f610e9f60408051602081019091525f815290565b90505f815111610ebd5760405180602001604052805f815250610ee8565b80610ec7846116a4565b604051602001610ed89291906120ad565b6040516020818303038152906040525b9392505050565b6001600160a01b0381165f908152600a60209081526040918290208054835181840281018401909452808452606093928301828280156109f657602002820191905f5260205f20908154815260200190600101908083116109e25750505050509050919050565b6001600160a01b039182165f90815260056020908152604080832093909416825291909152205460ff1690565b610f8b61123a565b610f93611265565b5f838152600260205260409020546001600160a01b0316610fca576040516366676c7360e01b8152600481018490526024016104bf565b5f838152600960205260409020600581015460ff161561100057604051631c9e9ce760e31b8152600481018590526024016104bf565b60018101546001600160a01b0316331461102f5760405163f4488b9560e01b81523360048201526024016104bf565b60058101805460ff191660019081179091556002820154908201546040516001600160a01b0392831692919091169086907f4373f2db96eebf82a154904195aa30d168812b73d4435396f3ca9f3d6fc0ce049061108f90889088906120db565b60405180910390a450610a2e60015f8051602061217f83398151915255565b6110b6611299565b6001600160a01b0381166110df57604051631e4fbdf760e01b81525f60048201526024016104bf565b610c0b81611421565b5f818152600260205260408120546001600160a01b031661110a57505f919050565b5f828152600960205260409020600581015460ff161561112c57505f92915050565b600381015465ffffffffffff16158015906111525750600381015465ffffffffffff1642115b1561115f57505f92915050565b50600192915050565b5f818152600260205260408120546001600160a01b03168061048657604051637e27328960e01b8152600481018490526024016104bf565b610a2e8383836001611734565b5f828152600260205260408120546001600160a01b031680158015906111db57506001600160a01b03851615155b156111f957604051630ed91cd360e41b815260040160405180910390fd5b611204858585611838565b95945050505050565b6007546001600160a01b03163314610a125760405163f4488b9560e01b81523360048201526024016104bf565b600654600160a01b900460ff1615610a125760405163d93c066560e01b815260040160405180910390fd5b61126d61192a565b60025f8051602061217f83398151915255565b6105a8828260405180602001604052805f815250611959565b6006546001600160a01b03163314610a125760405163118cdaa760e01b81523360048201526024016104bf565b6112ce611970565b6006805460ff60a01b191690557f5db9ee0a495bf2e6ff9c91a7834c1ba4fdd244a5e8aa4e537bd38aeae4b073aa335b6040516001600160a01b03909116815260200160405180910390a1565b6001600160a01b0382165f908152600a60209081526040808320848452600c9092528220548154919290916113529060019061208e565b90508082146113ab575f83828154811061136e5761136e612109565b905f5260205f20015490508084848154811061138c5761138c612109565b5f918252602080832090910192909255918252600c9052604090208290555b828054806113bb576113bb61211d565b600190038181905f5260205f20015f90559055600c5f8581526020019081526020015f205f90555050505050565b5f6113f55f835f6111ad565b90506001600160a01b0381166105a857604051637e27328960e01b8152600481018390526024016104bf565b600680546001600160a01b038381166001600160a01b0319831681179093556040519116919082907f8be0079c531659141344cd1fd0a4f28419497f9722a3daafe3b4186f6b6457e0905f90a35050565b61147a61123a565b6006805460ff60a01b1916600160a01b1790557f62e78cea01bee320cd4e420270b5ea74000d11b0c9f74754ebdbfc544b05a2586112fe3390565b6001600160a01b0383166114de5760405163a9fbf51f60e01b81525f60048201526024016104bf565b6001600160a01b03821661151057604051630b61174360e31b81526001600160a01b03831660048201526024016104bf565b6001600160a01b038381165f81815260056020908152604080832094871680845294825291829020805460ff191686151590811790915591519182527f17307eab39ab6107e8899845ad3d59bd9653f200f220920489ca2b5937696c31910160405180910390a3505050565b6001600160a01b0383163b1561169d57604051630a85bd0160e11b81526001600160a01b0384169063150b7a02906115be908890889087908790600401612131565b6020604051808303815f875af19250505080156115f8575060408051601f3d908101601f191682019092526115f591810190612163565b60015b61165f573d808015611625576040519150601f19603f3d011682016040523d82523d5f602084013e61162a565b606091505b5080515f0361165757604051633250574960e11b81526001600160a01b03851660048201526024016104bf565b805160208201fd5b6001600160e01b03198116630a85bd0160e11b1461169b57604051633250574960e11b81526001600160a01b03851660048201526024016104bf565b505b5050505050565b60605f6116b08361199a565b60010190505f8167ffffffffffffffff8111156116cf576116cf611ec7565b6040519080825280601f01601f1916602001820160405280156116f9576020820181803683370190505b5090508181016020015b5f19016f181899199a1a9b1b9c1cb0b131b232b360811b600a86061a8153600a850494508461170357509392505050565b808061174857506001600160a01b03821615155b15611809575f61175784611168565b90506001600160a01b038316158015906117835750826001600160a01b0316816001600160a01b031614155b801561179657506117948184610f56565b155b156117bf5760405163a9fbf51f60e01b81526001600160a01b03841660048201526024016104bf565b81156118075783856001600160a01b0316826001600160a01b03167f8c5be1e5ebec7d5bd14f71427d1e84f3dd0314c0f7b2291e5b200ac8c7c3b92560405160405180910390a45b505b50505f90815260046020526040902080546001600160a01b0319166001600160a01b0392909216919091179055565b5f828152600260205260408120546001600160a01b039081169083161561186457611864818486611a71565b6001600160a01b0381161561189e5761187f5f855f80611734565b6001600160a01b0381165f90815260036020526040902080545f190190555b6001600160a01b038516156118cc576001600160a01b0385165f908152600360205260409020805460010190555b5f8481526002602052604080822080546001600160a01b0319166001600160a01b0389811691821790925591518793918516917fddf252ad1be2c89b69c2b068fc378daa952ba7f163c4a11628f55a4df523b3ef91a4949350505050565b5f8051602061217f83398151915254600203610a1257604051633ee5aeb560e01b815260040160405180910390fd5b6119638383611ad5565b610a2e335f85858561157c565b600654600160a01b900460ff16610a1257604051638dfc202b60e01b815260040160405180910390fd5b5f8072184f03e93ff9f4daa797ed6e38ed64bf6a1f0160401b83106119d85772184f03e93ff9f4daa797ed6e38ed64bf6a1f0160401b830492506040015b6d04ee2d6d415b85acef81000000008310611a04576d04ee2d6d415b85acef8100000000830492506020015b662386f26fc100008310611a2257662386f26fc10000830492506010015b6305f5e1008310611a3a576305f5e100830492506008015b6127108310611a4e57612710830492506004015b60648310611a60576064830492506002015b600a83106104865760010192915050565b611a7c838383611b36565b610a2e576001600160a01b038316611aaa57604051637e27328960e01b8152600481018290526024016104bf565b60405163177e802f60e01b81526001600160a01b0383166004820152602481018290526044016104bf565b6001600160a01b038216611afe57604051633250574960e11b81525f60048201526024016104bf565b5f611b0a83835f6111ad565b90506001600160a01b03811615610a2e576040516339e3563760e11b81525f60048201526024016104bf565b5f6001600160a01b03831615801590611b925750826001600160a01b0316846001600160a01b03161480611b6f5750611b6f8484610f56565b80611b9257505f828152600460205260409020546001600160a01b038481169116145b949350505050565b6001600160e01b031981168114610c0b575f80fd5b5f60208284031215611bbf575f80fd5b8135610ee881611b9a565b5f60208284031215611bda575f80fd5b5035919050565b634e487b7160e01b5f52602160045260245ffd5b60048110611c0557611c05611be1565b9052565b602081016104868284611bf5565b5f5b83811015611c31578181015183820152602001611c19565b50505f910152565b5f8151808452611c50816020860160208601611c17565b601f01601f19169290920160200192915050565b602081525f610ee86020830184611c39565b80356001600160a01b0381168114611c8c575f80fd5b919050565b5f8060408385031215611ca2575f80fd5b611cab83611c76565b946020939093013593505050565b5f805f60608486031215611ccb575f80fd5b611cd484611c76565b9250611ce260208501611c76565b9150604084013590509250925092565b5f805f805f8060c08789031215611d07575f80fd5b611d1087611c76565b9550611d1e60208801611c76565b9450604087013560068110611d31575f80fd5b9350606087013560048110611d44575f80fd5b9250608087013565ffffffffffff81168114611d5e575f80fd5b8092505060a087013590509295509295509295565b5f60208284031215611d83575f80fd5b610ee882611c76565b602080825282518282018190525f9190848201906040850190845b81811015611dc357835183529284019291840191600101611da7565b50909695505050505050565b60068110611c0557611c05611be1565b815181526020808301516001600160a01b039081169183019190915260408084015190911690820152606080830151610120830191611e2090840182611dcf565b506080830151611e336080840182611bf5565b5060a0830151611e4d60a084018265ffffffffffff169052565b5060c0830151611e6760c084018265ffffffffffff169052565b5060e083015160e083015261010080840151611e868285018215159052565b505092915050565b5f8060408385031215611e9f575f80fd5b611ea883611c76565b915060208301358015158114611ebc575f80fd5b809150509250929050565b634e487b7160e01b5f52604160045260245ffd5b5f805f8060808587031215611eee575f80fd5b611ef785611c76565b9350611f0560208601611c76565b925060408501359150606085013567ffffffffffffffff80821115611f28575f80fd5b818701915087601f830112611f3b575f80fd5b813581811115611f4d57611f4d611ec7565b604051601f8201601f19908116603f01168101908382118183101715611f7557611f75611ec7565b816040528281528a6020848701011115611f8d575f80fd5b826020860160208301375f60208483010152809550505050505092959194509250565b5f8060408385031215611fc1575f80fd5b611fca83611c76565b9150611fd860208401611c76565b90509250929050565b5f805f60408486031215611ff3575f80fd5b83359250602084013567ffffffffffffffff80821115612011575f80fd5b818601915086601f830112612024575f80fd5b813581811115612032575f80fd5b876020828501011115612043575f80fd5b6020830194508093505050509250925092565b600181811c9082168061206a57607f821691505b60208210810361208857634e487b7160e01b5f52602260045260245ffd5b50919050565b8181038181111561048657634e487b7160e01b5f52601160045260245ffd5b5f83516120be818460208801611c17565b8351908301906120d2818360208801611c17565b01949350505050565b60208152816020820152818360408301375f818301604090810191909152601f909201601f19160101919050565b634e487b7160e01b5f52603260045260245ffd5b634e487b7160e01b5f52603160045260245ffd5b6001600160a01b03858116825284166020820152604081018390526080606082018190525f9061098f90830184611c39565b5f60208284031215612173575f80fd5b8151610ee881611b9a56fe9b779b17422d0df92223018b32b4d1fa46e071723d6817e2486d003becc55f00a26469706673582212209b15685a1e9d6c2e46ecfbf81e9d49c3102592cf3abdc76d551d9d8d7329aaf764736f6c63430008180033","linkReferences":{}},"methodIdentifiers":{"approve(address,uint256)":"095ea7b3","balanceOf(address)":"70a08231","burn(uint256)":"42966c68","burnAuth(uint256)":"0489b56f","credentialRegistry()":"b948c3d4","getApproved(uint256)":"081812fc","getCredential(uint256)":"8dd18d2d","getCredentialsByHolder(address)":"c8fba298","getCredentialsByIssuer(address)":"32860d6b","isApprovedForAll(address,address)":"e985e9c5","isValid(uint256)":"f577a500","issue(address,address,uint8,uint8,uint48,bytes32)":"2cf2d8dc","name()":"06fdde03","owner()":"8da5cb5b","ownerOf(uint256)":"6352211e","pause()":"8456cb59","paused()":"5c975abb","renounceOwnership()":"715018a6","revoke(uint256,string)":"eb929ad5","safeTransferFrom(address,address,uint256)":"42842e0e","safeTransferFrom(address,address,uint256,bytes)":"b88d4fde","setApprovalForAll(address,bool)":"a22cb465","setCredentialRegistry(address)":"a7013707","supportsInterface(bytes4)":"01ffc9a7","symbol()":"95d89b41","tokenURI(uint256)":"c87b56dd","totalSupply()":"18160ddd","transferFrom(address,address,uint256)":"23b872dd","transferOwnership(address)":"f2fde38b","unpause()":"3f4ba83a"},"id":52}