{"abi":[{"type":"constructor","inputs":[{"name":"initialOwner","type":"address","internalType":"address"}],"stateMutability":"nonpayable"},{"type":"function","name":"credentialRegistryContract","inputs":[],"outputs":[{"name":"","type":"address","internalType":"address"}],"stateMutability":"view"},{"type":"function","name":"deactivate","inputs":[],"outputs":[],"stateMutability":"nonpayable"},{"type":"function","name":"getDidHash","inputs":[{"name":"wallet","type":"address","internalType":"address"}],"outputs":[{"name":"","type":"bytes32","internalType":"bytes32"}],"stateMutability":"view"},{"type":"function","name":"getIdentity","inputs":[{"name":"wallet","type":"address","internalType":"address"}],"outputs":[{"name":"","type":"tuple","internalType":"struct IWorkerIdentity.Identity","components":[{"name":"wallet","type":"address","internalType":"address"},{"name":"didHash","type":"bytes32","internalType":"bytes32"},{"name":"profileMetaHash","type":"bytes32","internalType":"bytes32"},{"name":"status","type":"uint8","internalType":"enum IWorkerIdentity.IdentityStatus"},{"name":"registeredAt","type":"uint48","internalType":"uint48"},{"name":"lastUpdatedAt","type":"uint48","internalType":"uint48"},{"name":"credentialCount","type":"uint32","internalType":"uint32"},{"name":"reputationScore","type":"uint32","internalType":"uint32"}]}],"stateMutability":"view"},{"type":"function","name":"getReputationScore","inputs":[{"name":"wallet","type":"address","internalType":"address"}],"outputs":[{"name":"","type":"uint32","internalType":"uint32"}],"stateMutability":"view"},{"type":"function","name":"incrementCredentialCount","inputs":[{"name":"wallet","type":"address","internalType":"address"}],"outputs":[],"stateMutability":"nonpayable"},{"type":"function","name":"isActive","inputs":[{"name":"wallet","type":"address","internalType":"address"}],"outputs":[{"name":"","type":"bool","internalType":"bool"}],"stateMutability":"view"},{"type":"function","name":"owner","inputs":[],"outputs":[{"name":"","type":"address","internalType":"address"}],"stateMutability":"view"},{"type":"function","name":"pause","inputs":[],"outputs":[],"stateMutability":"nonpayable"},{"type":"function","name":"paused","inputs":[],"outputs":[{"name":"","type":"bool","internalType":"bool"}],"stateMutability":"view"},{"type":"function","name":"register","inputs":[{"name":"profileMetaHash","type":"bytes32","internalType":"bytes32"}],"outputs":[],"stateMutability":"nonpayable"},{"type":"function","name":"renounceOwnership","inputs":[],"outputs":[],"stateMutability":"nonpayable"},{"type":"function","name":"reputationScoreContract","inputs":[],"outputs":[{"name":"","type":"address","internalType":"address"}],"stateMutability":"view"},{"type":"function","name":"resolveByDid","inputs":[{"name":"didHash","type":"bytes32","internalType":"bytes32"}],"outputs":[{"name":"","type":"address","internalType":"address"}],"stateMutability":"view"},{"type":"function","name":"setCredentialRegistryContract","inputs":[{"name":"_contract","type":"address","internalType":"address"}],"outputs":[],"stateMutability":"nonpayable"},{"type":"function","name":"setReputationScoreContract","inputs":[{"name":"_contract","type":"address","internalType":"address"}],"outputs":[],"stateMutability":"nonpayable"},{"type":"function","name":"setStatus","inputs":[{"name":"wallet","type":"address","internalType":"address"},{"name":"newStatus","type":"uint8","internalType":"enum IWorkerIdentity.IdentityStatus"}],"outputs":[],"stateMutability":"nonpayable"},{"type":"function","name":"totalRegistered","inputs":[],"outputs":[{"name":"","type":"uint256","internalType":"uint256"}],"stateMutability":"view"},{"type":"function","name":"transferOwnership","inputs":[{"name":"newOwner","type":"address","internalType":"address"}],"outputs":[],"stateMutability":"nonpayable"},{"type":"function","name":"unpause","inputs":[],"outputs":[],"stateMutability":"nonpayable"},{"type":"function","name":"updateProfile","inputs":[{"name":"newMetaHash","type":"bytes32","internalType":"bytes32"}],"outputs":[],"stateMutability":"nonpayable"},{"type":"function","name":"writeReputationScore","inputs":[{"name":"wallet","type":"address","internalType":"address"},{"name":"newScore","type":"uint32","internalType":"uint32"}],"outputs":[],"stateMutability":"nonpayable"},{"type":"event","name":"CredentialCountIncremented","inputs":[{"name":"wallet","type":"address","indexed":true,"internalType":"address"},{"name":"newCount","type":"uint32","indexed":false,"internalType":"uint32"}],"anonymous":false},{"type":"event","name":"IdentityRegistered","inputs":[{"name":"wallet","type":"address","indexed":true,"internalType":"address"},{"name":"didHash","type":"bytes32","indexed":true,"internalType":"bytes32"},{"name":"registeredAt","type":"uint48","indexed":false,"internalType":"uint48"}],"anonymous":false},{"type":"event","name":"OwnershipTransferred","inputs":[{"name":"previousOwner","type":"address","indexed":true,"internalType":"address"},{"name":"newOwner","type":"address","indexed":true,"internalType":"address"}],"anonymous":false},{"type":"event","name":"Paused","inputs":[{"name":"account","type":"address","indexed":false,"internalType":"address"}],"anonymous":false},{"type":"event","name":"ProfileUpdated","inputs":[{"name":"wallet","type":"address","indexed":true,"internalType":"address"},{"name":"oldMetaHash","type":"bytes32","indexed":false,"internalType":"bytes32"},{"name":"newMetaHash","type":"bytes32","indexed":false,"internalType":"bytes32"}],"anonymous":false},{"type":"event","name":"ReputationScoreUpdated","inputs":[{"name":"wallet","type":"address","indexed":true,"internalType":"address"},{"name":"oldScore","type":"uint32","indexed":false,"internalType":"uint32"},{"name":"newScore","type":"uint32","indexed":false,"internalType":"uint32"}],"anonymous":false},{"type":"event","name":"StatusChanged","inputs":[{"name":"wallet","type":"address","indexed":true,"internalType":"address"},{"name":"oldStatus","type":"uint8","indexed":false,"internalType":"enum IWorkerIdentity.IdentityStatus"},{"name":"newStatus","type":"uint8","indexed":false,"internalType":"enum IWorkerIdentity.IdentityStatus"},{"name":"changedBy","type":"address","indexed":false,"internalType":"address"}],"anonymous":false},{"type":"event","name":"Unpaused","inputs":[{"name":"account","type":"address","indexed":false,"internalType":"address"}],"anonymous":false},{"type":"error","name":"EnforcedPause","inputs":[]},{"type":"error","name":"ExpectedPause","inputs":[]},{"type":"error","name":"OwnableInvalidOwner","inputs":[{"name":"owner","type":"address","internalType":"address"}]},{"type":"error","name":"OwnableUnauthorizedAccount","inputs":[{"name":"account","type":"address","internalType":"address"}]},{"type":"error","name":"ReentrancyGuardReentrantCall","inputs":[]},{"type":"error","name":"WorkerIdentity__AlreadyRegistered","inputs":[{"name":"wallet","type":"address","internalType":"address"}]},{"type":"error","name":"WorkerIdentity__InvalidMetadataHash","inputs":[]},{"type":"error","name":"WorkerIdentity__InvalidScoreEngine","inputs":[{"name":"caller","type":"address","internalType":"address"}]},{"type":"error","name":"WorkerIdentity__InvalidStatus","inputs":[{"name":"status","type":"uint8","internalType":"enum IWorkerIdentity.IdentityStatus"}]},{"type":"error","name":"WorkerIdentity__NotActive","inputs":[{"name":"wallet","type":"address","internalType":"address"},{"name":"status","type":"uint8","internalType":"enum IWorkerIdentity.IdentityStatus"}]},{"type":"error","name":"WorkerIdentity__NotRegistered","inputs":[{"name":"wallet","type":"address","internalType":"address"}]},{"type":"error","name":"WorkerIdentity__Unauthorized","inputs":[{"name":"caller","type":"address","internalType":"address"}]},{"type":"error","name":"WorkerIdentity__ZeroAddress","inputs":[]}],"bytecode":{"object":"0x608060405234801561000f575f80fd5b506040516113f83803806113f883398101604081905261002e916100df565b806001600160a01b03811661005c57604051631e4fbdf760e01b81525f600482015260240160405180910390fd5b61006581610090565b5060017f9b779b17422d0df92223018b32b4d1fa46e071723d6817e2486d003becc55f00555061010c565b5f80546001600160a01b038381166001600160a01b0319831681178455604051919092169283917f8be0079c531659141344cd1fd0a4f28419497f9722a3daafe3b4186f6b6457e09190a35050565b5f602082840312156100ef575f80fd5b81516001600160a01b0381168114610105575f80fd5b9392505050565b6112df806101195f395ff3fe608060405234801561000f575f80fd5b506004361061013d575f3560e01c806378d12861116100b4578063b05cf0eb11610079578063b05cf0eb146102b5578063b5d3d645146102c8578063bf7746b8146102db578063e1fa8e84146102ee578063f2fde38b14610301578063f4015e2214610314575f80fd5b806378d128611461026f5780638456cb59146102825780638da5cb5b1461028a578063927416c01461029a5780639f8a13d7146102a2575f80fd5b80634afd7455116101055780634afd7455146101cf57806351b42b00146101e25780635c975abb146101ea5780637067181914610207578063715018a61461021a57806375a67d5c14610222575f80fd5b8063278e07ce1461014157806329b4224d146101565780632fea7b811461017c578063376321d11461019c5780633f4ba83a146101c7575b5f80fd5b61015461014f3660046110cb565b610327565b005b610169610164366004611103565b6104d4565b6040519081526020015b60405180910390f35b61018f61018a366004611103565b610545565b6040516101739190611157565b6101af6101aa3660046111e1565b610699565b6040516001600160a01b039091168152602001610173565b6101546106d6565b6101546101dd366004611103565b6106e8565b6101546107c2565b5f54600160a01b900460ff165b6040519015158152602001610173565b610154610215366004611103565b610866565b6101546108b7565b61025a610230366004611103565b6001600160a01b03165f90815260016020526040902060030154600160881b900463ffffffff1690565b60405163ffffffff9091168152602001610173565b6003546101af906001600160a01b031681565b6101546108c8565b5f546001600160a01b03166101af565b600554610169565b6101f76102b0366004611103565b6108d8565b6101546102c3366004611103565b610912565b6004546101af906001600160a01b031681565b6101546102e93660046111e1565b610963565b6101546102fc3660046111e1565b610a33565b61015461030f366004611103565b610d09565b6101546103223660046111f8565b610d43565b61032f610e45565b6001600160a01b0382166103565760405163d4b4cccd60e01b815260040160405180910390fd5b6001600160a01b0382165f90815260016020526040812060030154610100900465ffffffffffff1690036103ad5760405163c2e0b86160e01b81526001600160a01b03831660048201526024015b60405180910390fd5b5f8160038111156103c0576103c0611123565b036103e05780604051637e9218e360e11b81526004016103a4919061122a565b60038160038111156103f4576103f4611123565b036104145780604051637e9218e360e11b81526004016103a4919061122a565b6001600160a01b0382165f9081526001602081905260409091206003908101805460ff811693859360ff1990921691849081111561045457610454611123565b02179055506001600160a01b0383165f8181526001602052604090819020600301805465ffffffffffff60381b1916600160381b4265ffffffffffff1602179055517fc4cef67cac296d302117547ff97c3bf51e17a65f88b365e3428bede6640c6c81906104c790849086903390611238565b60405180910390a2505050565b6001600160a01b0381165f90815260016020526040812060030154610100900465ffffffffffff1681036105265760405163c2e0b86160e01b81526001600160a01b03831660048201526024016103a4565b506001600160a01b03165f908152600160208190526040909120015490565b60408051610100810182525f80825260208201819052918101829052606081018290526080810182905260a0810182905260c0810182905260e08101919091526001600160a01b0382165f90815260016020526040812060030154610100900465ffffffffffff1690036105d75760405163c2e0b86160e01b81526001600160a01b03831660048201526024016103a4565b6001600160a01b038083165f90815260016020818152604092839020835161010081018552815490951685529182015490840152600281015491830191909152600380820154606084019160ff9091169081111561063757610637611123565b600381111561064857610648611123565b81526003919091015465ffffffffffff610100820481166020840152600160381b820416604083015263ffffffff600160681b820481166060840152600160881b9091041660809091015292915050565b5f818152600260205260408120546001600160a01b0316806106d05760405163c2e0b86160e01b81525f60048201526024016103a4565b92915050565b6106de610e45565b6106e6610e71565b565b6106f0610ec5565b6001600160a01b0381165f90815260016020526040812060030154610100900465ffffffffffff1690036107425760405163c2e0b86160e01b81526001600160a01b03821660048201526024016103a4565b6001600160a01b0381165f81815260016020818152604092839020600301805463ffffffff60681b198116600160681b9182900463ffffffff908116909501851682021791829055935193900490911682527f8fe3e61c6b6707c37aa07101d0f4941ae1634317fcd86789c8e75a94364cfde6910160405180910390a250565b6107ca610ef2565b336107d481610f0d565b335f81815260016020819052604091829020600380820180546cffffffffffff000000000000ff1916600160381b4265ffffffffffff1602178217905592519093927fc4cef67cac296d302117547ff97c3bf51e17a65f88b365e3428bede6640c6c8192610846929091908590611238565b60405180910390a250506106e660015f8051602061128a83398151915255565b61086e610e45565b6001600160a01b0381166108955760405163d4b4cccd60e01b815260040160405180910390fd5b600480546001600160a01b0319166001600160a01b0392909216919091179055565b6108bf610e45565b6106e65f610f70565b6108d0610e45565b6106e6610fbf565b5f60016001600160a01b0383165f90815260016020526040902060039081015460ff169081111561090b5761090b611123565b1492915050565b61091a610e45565b6001600160a01b0381166109415760405163d4b4cccd60e01b815260040160405180910390fd5b600380546001600160a01b0319166001600160a01b0392909216919091179055565b61096b611001565b610973610ef2565b3361097d81610f0d565b8161099b5760405163e6a1b15960e01b815260040160405180910390fd5b335f818152600160209081526040918290206002810180549087905560038201805465ffffffffffff60381b1916600160381b4265ffffffffffff160217905583518181529283018790529093909290917f97ef233713b2defb2afb3384f35421b24d44f70673c6e2a8c68c2d3fa9102297910160405180910390a2505050610a3060015f8051602061128a83398151915255565b50565b610a3b611001565b610a43610ef2565b33610a615760405163d4b4cccd60e01b815260040160405180910390fd5b80610a7f5760405163e6a1b15960e01b815260040160405180910390fd5b335f90815260016020526040902060030154610100900465ffffffffffff1615610abe576040516363d9356360e01b81523360048201526024016103a4565b604080516c3234b21d3b32b930b33637bb9d60991b60208083019190915246602d830152601d60f91b604d8301523360601b6bffffffffffffffffffffffff1916604e83015282516042818403018152606290920183528151918101919091205f8181526002909252919020546001600160a01b031615610b54576040516363d9356360e01b81523360048201526024016103a4565b60408051610100810182523380825260208083018581528385018781526001606086018181524265ffffffffffff166080880181905260a08801525f60c0880181905260e088018190529586529381905295909320845181546001600160a01b0319166001600160a01b03909116178155905181860155915160028301555160038083018054949593949293909260ff1916918490811115610bf857610bf8611123565b02179055506080820151600391909101805460a084015160c085015160e0909501516cffffffffffffffffffffffff001990921661010065ffffffffffff9586160265ffffffffffff60381b191617600160381b918516919091021767ffffffffffffffff60681b1916600160681b63ffffffff9586160263ffffffff60881b191617600160881b9490911693909302929092179091555f828152600260209081526040918290208054336001600160a01b03199091168117909155600580546001019055915142909316835283927fab995ee3a8b94f2340118544de796a42ed3c7904dff36f91ed840fcd9cd68583910160405180910390a350610a3060015f8051602061128a83398151915255565b610d11610e45565b6001600160a01b038116610d3a57604051631e4fbdf760e01b81525f60048201526024016103a4565b610a3081610f70565b610d4b61102b565b6001600160a01b0382165f90815260016020526040812060030154610100900465ffffffffffff169003610d9d5760405163c2e0b86160e01b81526001600160a01b03831660048201526024016103a4565b6001600160a01b0382165f81815260016020908152604091829020600301805474ffffffff00000000ffffffffffff00000000000000198116600160881b63ffffffff88811682810265ffffffffffff60381b191693909317600160381b4265ffffffffffff16021790945585519204909216808252928101919091529092917f3fdd5d2ba24f9c48e08c785a7d200a38711773da6cee3f8178a45c40bf6cd99f91016104c7565b5f546001600160a01b031633146106e65760405163118cdaa760e01b81523360048201526024016103a4565b610e79611058565b5f805460ff60a01b191690557f5db9ee0a495bf2e6ff9c91a7834c1ba4fdd244a5e8aa4e537bd38aeae4b073aa335b6040516001600160a01b03909116815260200160405180910390a1565b6004546001600160a01b031633146106e65760405163ea37e73d60e01b81523360048201526024016103a4565b610efa611081565b60025f8051602061128a83398151915255565b6001600160a01b0381165f9081526001602081905260409091209060038083015460ff1690811115610f4157610f41611123565b14610f6c576003810154604051630ff0c75160e21b81526103a491849160ff9091169060040161126c565b5050565b5f80546001600160a01b038381166001600160a01b0319831681178455604051919092169283917f8be0079c531659141344cd1fd0a4f28419497f9722a3daafe3b4186f6b6457e09190a35050565b610fc7611001565b5f805460ff60a01b1916600160a01b1790557f62e78cea01bee320cd4e420270b5ea74000d11b0c9f74754ebdbfc544b05a258610ea83390565b5f54600160a01b900460ff16156106e65760405163d93c066560e01b815260040160405180910390fd5b6003546001600160a01b031633146106e6576040516365fecc3b60e01b81523360048201526024016103a4565b5f54600160a01b900460ff166106e657604051638dfc202b60e01b815260040160405180910390fd5b5f8051602061128a833981519152546002036106e657604051633ee5aeb560e01b815260040160405180910390fd5b80356001600160a01b03811681146110c6575f80fd5b919050565b5f80604083850312156110dc575f80fd5b6110e5836110b0565b91506020830135600481106110f8575f80fd5b809150509250929050565b5f60208284031215611113575f80fd5b61111c826110b0565b9392505050565b634e487b7160e01b5f52602160045260245ffd5b6004811061115357634e487b7160e01b5f52602160045260245ffd5b9052565b81516001600160a01b03168152602080830151908201526040808301519082015260608083015161010083019161119090840182611137565b50608083015165ffffffffffff80821660808501528060a08601511660a0850152505063ffffffff60c08401511660c083015260e08301516111da60e084018263ffffffff169052565b5092915050565b5f602082840312156111f1575f80fd5b5035919050565b5f8060408385031215611209575f80fd5b611212836110b0565b9150602083013563ffffffff811681146110f8575f80fd5b602081016106d08284611137565b606081016112468286611137565b6112536020830185611137565b6001600160a01b03929092166040919091015292915050565b6001600160a01b03831681526040810161111c602083018461113756fe9b779b17422d0df92223018b32b4d1fa46e071723d6817e2486d003becc55f00a264697066735822122026160fd0aa1b9887dbcf9bc5696586bff35201a9cffc15c9269c4404e4d436d264736f6c63430008180033","linkReferences":{}},"methodIdentifiers":{"credentialRegistryContract()":"b5d3d645","deactivate()":"51b42b00","getDidHash(address)":"29b4224d","getIdentity(address)":"2fea7b81","getReputationScore(address)":"75a67d5c","incrementCredentialCount(address)":"4afd7455","isActive(address)":"9f8a13d7","owner()":"8da5cb5b","pause()":"8456cb59","paused()":"5c975abb","register(bytes32)":"e1fa8e84","renounceOwnership()":"715018a6","reputationScoreContract()":"78d12861","resolveByDid(bytes32)":"376321d1","setCredentialRegistryContract(address)":"70671819","setReputationScoreContract(address)":"b05cf0eb","setStatus(address,uint8)":"278e07ce","totalRegistered()":"927416c0","transferOwnership(address)":"f2fde38b","unpause()":"3f4ba83a","updateProfile(bytes32)":"bf7746b8","writeReputationScore(address,uint32)":"f4015e22"},"id":56}